{
  "contractName": "Dex",
  "abi": [
    {
      "anonymous": false,
      "inputs": [
        {
          "indexed": false,
          "internalType": "uint256",
          "name": "amount",
          "type": "uint256"
        },
        {
          "indexed": false,
          "internalType": "bytes32",
          "name": "ticker",
          "type": "bytes32"
        }
      ],
      "name": "Deposited",
      "type": "event"
    },
    {
      "anonymous": false,
      "inputs": [
        {
          "indexed": true,
          "internalType": "address",
          "name": "previousOwner",
          "type": "address"
        },
        {
          "indexed": true,
          "internalType": "address",
          "name": "newOwner",
          "type": "address"
        }
      ],
      "name": "OwnershipTransferred",
      "type": "event"
    },
    {
      "inputs": [
        {
          "internalType": "bytes32",
          "name": "ticker",
          "type": "bytes32"
        },
        {
          "internalType": "address",
          "name": "tokenAddress",
          "type": "address"
        }
      ],
      "name": "addToken",
      "outputs": [],
      "stateMutability": "nonpayable",
      "type": "function"
    },
    {
      "inputs": [
        {
          "internalType": "address",
          "name": "",
          "type": "address"
        },
        {
          "internalType": "bytes32",
          "name": "",
          "type": "bytes32"
        }
      ],
      "name": "balances",
      "outputs": [
        {
          "internalType": "uint256",
          "name": "",
          "type": "uint256"
        }
      ],
      "stateMutability": "view",
      "type": "function"
    },
    {
      "inputs": [
        {
          "internalType": "uint256",
          "name": "amount",
          "type": "uint256"
        },
        {
          "internalType": "bytes32",
          "name": "ticker",
          "type": "bytes32"
        }
      ],
      "name": "deposit",
      "outputs": [],
      "stateMutability": "payable",
      "type": "function"
    },
    {
      "inputs": [],
      "name": "depositEth",
      "outputs": [],
      "stateMutability": "payable",
      "type": "function"
    },
    {
      "inputs": [],
      "name": "nextOrderId",
      "outputs": [
        {
          "internalType": "uint256",
          "name": "",
          "type": "uint256"
        }
      ],
      "stateMutability": "view",
      "type": "function"
    },
    {
      "inputs": [
        {
          "internalType": "bytes32",
          "name": "",
          "type": "bytes32"
        },
        {
          "internalType": "uint256",
          "name": "",
          "type": "uint256"
        },
        {
          "internalType": "uint256",
          "name": "",
          "type": "uint256"
        }
      ],
      "name": "orderBook",
      "outputs": [
        {
          "internalType": "uint256",
          "name": "id",
          "type": "uint256"
        },
        {
          "internalType": "address",
          "name": "trader",
          "type": "address"
        },
        {
          "internalType": "enum Dex.Side",
          "name": "side",
          "type": "uint8"
        },
        {
          "internalType": "bytes32",
          "name": "ticker",
          "type": "bytes32"
        },
        {
          "internalType": "uint256",
          "name": "amount",
          "type": "uint256"
        },
        {
          "internalType": "uint256",
          "name": "price",
          "type": "uint256"
        },
        {
          "internalType": "uint256",
          "name": "filled",
          "type": "uint256"
        }
      ],
      "stateMutability": "view",
      "type": "function"
    },
    {
      "inputs": [],
      "name": "owner",
      "outputs": [
        {
          "internalType": "address",
          "name": "",
          "type": "address"
        }
      ],
      "stateMutability": "view",
      "type": "function"
    },
    {
      "inputs": [],
      "name": "renounceOwnership",
      "outputs": [],
      "stateMutability": "nonpayable",
      "type": "function"
    },
    {
      "inputs": [
        {
          "internalType": "uint256",
          "name": "",
          "type": "uint256"
        }
      ],
      "name": "tokenList",
      "outputs": [
        {
          "internalType": "bytes32",
          "name": "",
          "type": "bytes32"
        }
      ],
      "stateMutability": "view",
      "type": "function"
    },
    {
      "inputs": [
        {
          "internalType": "bytes32",
          "name": "",
          "type": "bytes32"
        }
      ],
      "name": "tokenMapping",
      "outputs": [
        {
          "internalType": "bytes32",
          "name": "ticker",
          "type": "bytes32"
        },
        {
          "internalType": "address",
          "name": "tokenAddress",
          "type": "address"
        }
      ],
      "stateMutability": "view",
      "type": "function"
    },
    {
      "inputs": [
        {
          "internalType": "address",
          "name": "newOwner",
          "type": "address"
        }
      ],
      "name": "transferOwnership",
      "outputs": [],
      "stateMutability": "nonpayable",
      "type": "function"
    },
    {
      "inputs": [
        {
          "internalType": "uint256",
          "name": "amount",
          "type": "uint256"
        },
        {
          "internalType": "bytes32",
          "name": "ticker",
          "type": "bytes32"
        }
      ],
      "name": "withdraw",
      "outputs": [],
      "stateMutability": "nonpayable",
      "type": "function"
    },
    {
      "inputs": [
        {
          "internalType": "uint256",
          "name": "amount",
          "type": "uint256"
        }
      ],
      "name": "withdrawEth",
      "outputs": [],
      "stateMutability": "nonpayable",
      "type": "function"
    },
    {
      "inputs": [
        {
          "internalType": "bytes32",
          "name": "ticker",
          "type": "bytes32"
        },
        {
          "internalType": "enum Dex.Side",
          "name": "side",
          "type": "uint8"
        }
      ],
      "name": "getOrderBook",
      "outputs": [
        {
          "components": [
            {
              "internalType": "uint256",
              "name": "id",
              "type": "uint256"
            },
            {
              "internalType": "address",
              "name": "trader",
              "type": "address"
            },
            {
              "internalType": "enum Dex.Side",
              "name": "side",
              "type": "uint8"
            },
            {
              "internalType": "bytes32",
              "name": "ticker",
              "type": "bytes32"
            },
            {
              "internalType": "uint256",
              "name": "amount",
              "type": "uint256"
            },
            {
              "internalType": "uint256",
              "name": "price",
              "type": "uint256"
            },
            {
              "internalType": "uint256",
              "name": "filled",
              "type": "uint256"
            }
          ],
          "internalType": "struct Dex.Order[]",
          "name": "",
          "type": "tuple[]"
        }
      ],
      "stateMutability": "view",
      "type": "function"
    },
    {
      "inputs": [
        {
          "internalType": "enum Dex.Side",
          "name": "side",
          "type": "uint8"
        },
        {
          "internalType": "bytes32",
          "name": "ticker",
          "type": "bytes32"
        },
        {
          "internalType": "uint256",
          "name": "amount",
          "type": "uint256"
        },
        {
          "internalType": "uint256",
          "name": "price",
          "type": "uint256"
        }
      ],
      "name": "createLimitOrder",
      "outputs": [],
      "stateMutability": "nonpayable",
      "type": "function"
    },
    {
      "inputs": [
        {
          "internalType": "enum Dex.Side",
          "name": "side",
          "type": "uint8"
        },
        {
          "internalType": "bytes32",
          "name": "ticker",
          "type": "bytes32"
        },
        {
          "internalType": "uint256",
          "name": "amount",
          "type": "uint256"
        }
      ],
      "name": "createMarketOrder",
      "outputs": [],
      "stateMutability": "nonpayable",
      "type": "function"
    }
  ],
  "bytecode": "0x608060405260006004553480156200001657600080fd5b5062000049620000346200004f640100000000026401000000009004565b62000057640100000000026401000000009004565b6200011b565b600033905090565b60008060009054906101000a900473ffffffffffffffffffffffffffffffffffffffff169050816000806101000a81548173ffffffffffffffffffffffffffffffffffffffff021916908373ffffffffffffffffffffffffffffffffffffffff1602179055508173ffffffffffffffffffffffffffffffffffffffff168173ffffffffffffffffffffffffffffffffffffffff167f8be0079c531659141344cd1fd0a4f28419497f9722a3daafe3b4186f6b6457e060405160405180910390a35050565b6137c4806200012b6000396000f3fe608060405260043610610110576000357c0100000000000000000000000000000000000000000000000000000000900480639776aacf116100a7578063ba58ea6811610076578063ba58ea681461032b578063c311d04914610368578063c9630cb014610391578063f2fde38b146103ad57610110565b80639776aacf1461027357806399ec2f1c1461029c5780639ead7222146102c5578063a8d2021a1461030257610110565b8063667cb4ba116100e3578063667cb4ba146101ca5780636f3b62f914610208578063715018a6146102315780638da5cb5b1461024857610110565b80630bb431b6146101155780631f14df69146101585780632a58b33014610195578063439370b1146101c0575b600080fd5b34801561012157600080fd5b5061013c60048036038101906101379190612be4565b6103d6565b60405161014f9796959493929190612d0d565b60405180910390f35b34801561016457600080fd5b5061017f600480360381019061017a9190612da8565b61046f565b60405161018c9190612de8565b60405180910390f35b3480156101a157600080fd5b506101aa610494565b6040516101b79190612de8565b60405180910390f35b6101c861049a565b005b3480156101d657600080fd5b506101f160048036038101906101ec9190612e03565b610593565b6040516101ff929190612e30565b60405180910390f35b34801561021457600080fd5b5061022f600480360381019061022a9190612e7e565b6105d7565b005b34801561023d57600080fd5b5061024661101e565b005b34801561025457600080fd5b5061025d6110a6565b60405161026a9190612ee5565b60405180910390f35b34801561027f57600080fd5b5061029a60048036038101906102959190612f00565b6110cf565b005b3480156102a857600080fd5b506102c360048036038101906102be9190612f40565b61120a565b005b3480156102d157600080fd5b506102ec60048036038101906102e79190612f93565b6120a4565b6040516102f99190612fc0565b60405180910390f35b34801561030e57600080fd5b5061032960048036038101906103249190612fdb565b6120c8565b005b34801561033757600080fd5b50610352600480360381019061034d919061301b565b61238f565b60405161035f91906131d4565b60405180910390f35b34801561037457600080fd5b5061038f600480360381019061038a9190612f93565b6124e8565b005b6103ab60048036038101906103a69190612fdb565b6126fe565b005b3480156103b957600080fd5b506103d460048036038101906103cf91906131f6565b61296d565b005b600560205282600052604060002060205281600052604060002081815481106103fe57600080fd5b906000526020600020906006020160009250925050508060000154908060010160009054906101000a900473ffffffffffffffffffffffffffffffffffffffff16908060010160149054906101000a900460ff16908060020154908060030154908060040154908060050154905087565b6003602052816000526040600020602052806000526040600020600091509150505481565b60045481565b61051d34600360003373ffffffffffffffffffffffffffffffffffffffff1673ffffffffffffffffffffffffffffffffffffffff16815260200190815260200160002060007f4554480000000000000000000000000000000000000000000000000000000000815260200190815260200160002054612a6590919063ffffffff16565b600360003373ffffffffffffffffffffffffffffffffffffffff1673ffffffffffffffffffffffffffffffffffffffff16815260200190815260200160002060007f4554480000000000000000000000000000000000000000000000000000000000815260200190815260200160002081905550565b60016020528060005260406000206000915090508060000154908060010160009054906101000a900473ffffffffffffffffffffffffffffffffffffffff16905082565b600060018111156105eb576105ea612c87565b5b8460018111156105fe576105fd612c87565b5b1415610698576106178183612a7b90919063ffffffff16565b600360003373ffffffffffffffffffffffffffffffffffffffff1673ffffffffffffffffffffffffffffffffffffffff16815260200190815260200160002060007f4554480000000000000000000000000000000000000000000000000000000000815260200190815260200160002054101561069357600080fd5b610723565b6001808111156106ab576106aa612c87565b5b8460018111156106be576106bd612c87565b5b14156107225781600360003373ffffffffffffffffffffffffffffffffffffffff1673ffffffffffffffffffffffffffffffffffffffff168152602001908152602001600020600085815260200190815260200160002054101561072157600080fd5b5b5b600060056000858152602001908152602001600020600086600181111561074d5761074c612c87565b5b81526020019081526020016000209050806040518060e0016040528060045481526020013373ffffffffffffffffffffffffffffffffffffffff1681526020018760018111156107a05761079f612c87565b5b8152602001868152602001858152602001848152602001600081525090806001815401808255809150506001900390600052602060002090600602016000909190919091506000820151816000015560208201518160010160006101000a81548173ffffffffffffffffffffffffffffffffffffffff021916908373ffffffffffffffffffffffffffffffffffffffff16021790555060408201518160010160146101000a81548160ff0219169083600181111561086157610860612c87565b5b0217905550606082015181600201556080820151816003015560a0820151816004015560c0820151816005015550506000808280549050116108a45760006108b6565b600182805490506108b59190613252565b5b9050600060018111156108cc576108cb612c87565b5b8660018111156108df576108de612c87565b5b1415610c5d575b6000811115610c585781818154811061090257610901613286565b5b906000526020600020906006020160040154826001836109229190613252565b8154811061093357610932613286565b5b906000526020600020906006020160040154111561095057610c58565b6000826001836109609190613252565b8154811061097157610970613286565b5b90600052602060002090600602016040518060e0016040529081600082015481526020016001820160009054906101000a900473ffffffffffffffffffffffffffffffffffffffff1673ffffffffffffffffffffffffffffffffffffffff1673ffffffffffffffffffffffffffffffffffffffff1681526020016001820160149054906101000a900460ff166001811115610a0f57610a0e612c87565b5b6001811115610a2157610a20612c87565b5b81526020016002820154815260200160038201548152602001600482015481526020016005820154815250509050828281548110610a6257610a61613286565b5b906000526020600020906006020183600184610a7e9190613252565b81548110610a8f57610a8e613286565b5b9060005260206000209060060201600082015481600001556001820160009054906101000a900473ffffffffffffffffffffffffffffffffffffffff168160010160006101000a81548173ffffffffffffffffffffffffffffffffffffffff021916908373ffffffffffffffffffffffffffffffffffffffff1602179055506001820160149054906101000a900460ff168160010160146101000a81548160ff02191690836001811115610b4657610b45612c87565b5b02179055506002820154816002015560038201548160030155600482015481600401556005820154816005015590505080838381548110610b8a57610b89613286565b5b90600052602060002090600602016000820151816000015560208201518160010160006101000a81548173ffffffffffffffffffffffffffffffffffffffff021916908373ffffffffffffffffffffffffffffffffffffffff16021790555060408201518160010160146101000a81548160ff02191690836001811115610c1457610c13612c87565b5b0217905550606082015181600201556080820151816003015560a0820151816004015560c082015181600501559050508180610c4f906132b5565b925050506108e6565b610ffe565b600180811115610c7057610c6f612c87565b5b866001811115610c8357610c82612c87565b5b1415610ffd575b6000811115610ffc57818181548110610ca657610ca5613286565b5b90600052602060002090600602016004015482600183610cc69190613252565b81548110610cd757610cd6613286565b5b9060005260206000209060060201600401541015610cf457610ffc565b600082600183610d049190613252565b81548110610d1557610d14613286565b5b90600052602060002090600602016040518060e0016040529081600082015481526020016001820160009054906101000a900473ffffffffffffffffffffffffffffffffffffffff1673ffffffffffffffffffffffffffffffffffffffff1673ffffffffffffffffffffffffffffffffffffffff1681526020016001820160149054906101000a900460ff166001811115610db357610db2612c87565b5b6001811115610dc557610dc4612c87565b5b81526020016002820154815260200160038201548152602001600482015481526020016005820154815250509050828281548110610e0657610e05613286565b5b906000526020600020906006020183600184610e229190613252565b81548110610e3357610e32613286565b5b9060005260206000209060060201600082015481600001556001820160009054906101000a900473ffffffffffffffffffffffffffffffffffffffff168160010160006101000a81548173ffffffffffffffffffffffffffffffffffffffff021916908373ffffffffffffffffffffffffffffffffffffffff1602179055506001820160149054906101000a900460ff168160010160146101000a81548160ff02191690836001811115610eea57610ee9612c87565b5b02179055506002820154816002015560038201548160030155600482015481600401556005820154816005015590505080838381548110610f2e57610f2d613286565b5b90600052602060002090600602016000820151816000015560208201518160010160006101000a81548173ffffffffffffffffffffffffffffffffffffffff021916908373ffffffffffffffffffffffffffffffffffffffff16021790555060408201518160010160146101000a81548160ff02191690836001811115610fb857610fb7612c87565b5b0217905550606082015181600201556080820151816003015560a0820151816004015560c082015181600501559050508180610ff3906132b5565b92505050610c8a565b5b5b60046000815480929190611011906132df565b9190505550505050505050565b611026612a91565b73ffffffffffffffffffffffffffffffffffffffff166110446110a6565b73ffffffffffffffffffffffffffffffffffffffff161461109a576040517f08c379a000000000000000000000000000000000000000000000000000000000815260040161109190613385565b60405180910390fd5b6110a46000612a99565b565b60008060009054906101000a900473ffffffffffffffffffffffffffffffffffffffff16905090565b6110d7612a91565b73ffffffffffffffffffffffffffffffffffffffff166110f56110a6565b73ffffffffffffffffffffffffffffffffffffffff161461114b576040517f08c379a000000000000000000000000000000000000000000000000000000000815260040161114290613385565b60405180910390fd5b60405180604001604052808381526020018273ffffffffffffffffffffffffffffffffffffffff16815250600160008481526020019081526020016000206000820151816000015560208201518160010160006101000a81548173ffffffffffffffffffffffffffffffffffffffff021916908373ffffffffffffffffffffffffffffffffffffffff16021790555090505060028290806001815401808255809150506001900390600052602060002001600090919091909150555050565b60018081111561121d5761121c612c87565b5b8360018111156112305761122f612c87565b5b14156112ca5780600360003373ffffffffffffffffffffffffffffffffffffffff1673ffffffffffffffffffffffffffffffffffffffff16815260200190815260200160002060008481526020019081526020016000205410156112c9576040517f08c379a00000000000000000000000000000000000000000000000000000000081526004016112c0906133f1565b60405180910390fd5b5b60008060018111156112df576112de612c87565b5b8460018111156112f2576112f1612c87565b5b14156113015760019050611306565b600090505b600060056000858152602001908152602001600020600083815260200190815260200160002090506000805b82805490508110801561134457508482105b15611e5057600061135e8387612b5d90919063ffffffff16565b905060006113bd85848154811061137857611377613286565b5b90600052602060002090600602016005015486858154811061139d5761139c613286565b5b906000526020600020906006020160030154612b5d90919063ffffffff16565b90506000828211156113d1578290506113d5565b8190505b6113e88186612a6590919063ffffffff16565b94506114218187868154811061140157611400613286565b5b906000526020600020906006020160050154612a6590919063ffffffff16565b86858154811061143457611433613286565b5b906000526020600020906006020160050181905550600061148287868154811061146157611460613286565b5b90600052602060002090600602016004015483612a7b90919063ffffffff16565b90506000600181111561149857611497612c87565b5b8b60018111156114ab576114aa612c87565b5b141561199f5780600360003373ffffffffffffffffffffffffffffffffffffffff1673ffffffffffffffffffffffffffffffffffffffff16815260200190815260200160002060007f4554480000000000000000000000000000000000000000000000000000000000815260200190815260200160002054101561152e57600080fd5b61159182600360003373ffffffffffffffffffffffffffffffffffffffff1673ffffffffffffffffffffffffffffffffffffffff16815260200190815260200160002060008d815260200190815260200160002054612a6590919063ffffffff16565b600360003373ffffffffffffffffffffffffffffffffffffffff1673ffffffffffffffffffffffffffffffffffffffff16815260200190815260200160002060008c81526020019081526020016000208190555061166881600360003373ffffffffffffffffffffffffffffffffffffffff1673ffffffffffffffffffffffffffffffffffffffff16815260200190815260200160002060007f4554480000000000000000000000000000000000000000000000000000000000815260200190815260200160002054612b5d90919063ffffffff16565b600360003373ffffffffffffffffffffffffffffffffffffffff1673ffffffffffffffffffffffffffffffffffffffff16815260200190815260200160002060007f455448000000000000000000000000000000000000000000000000000000000081526020019081526020016000208190555061178382600360008a89815481106116f7576116f6613286565b5b906000526020600020906006020160010160009054906101000a900473ffffffffffffffffffffffffffffffffffffffff1673ffffffffffffffffffffffffffffffffffffffff1673ffffffffffffffffffffffffffffffffffffffff16815260200190815260200160002060008d815260200190815260200160002054612b5d90919063ffffffff16565b6003600089888154811061179a57611799613286565b5b906000526020600020906006020160010160009054906101000a900473ffffffffffffffffffffffffffffffffffffffff1673ffffffffffffffffffffffffffffffffffffffff1673ffffffffffffffffffffffffffffffffffffffff16815260200190815260200160002060008c8152602001908152602001600020819055506118e281600360008a898154811061183657611835613286565b5b906000526020600020906006020160010160009054906101000a900473ffffffffffffffffffffffffffffffffffffffff1673ffffffffffffffffffffffffffffffffffffffff1673ffffffffffffffffffffffffffffffffffffffff16815260200190815260200160002060007f4554480000000000000000000000000000000000000000000000000000000000815260200190815260200160002054612a6590919063ffffffff16565b600360008988815481106118f9576118f8613286565b5b906000526020600020906006020160010160009054906101000a900473ffffffffffffffffffffffffffffffffffffffff1673ffffffffffffffffffffffffffffffffffffffff1673ffffffffffffffffffffffffffffffffffffffff16815260200190815260200160002060007f4554480000000000000000000000000000000000000000000000000000000000815260200190815260200160002081905550611e39565b6001808111156119b2576119b1612c87565b5b8b60018111156119c5576119c4612c87565b5b1415611e3857611a2e82600360003373ffffffffffffffffffffffffffffffffffffffff1673ffffffffffffffffffffffffffffffffffffffff16815260200190815260200160002060008d815260200190815260200160002054612b5d90919063ffffffff16565b600360003373ffffffffffffffffffffffffffffffffffffffff1673ffffffffffffffffffffffffffffffffffffffff16815260200190815260200160002060008c815260200190815260200160002081905550611b0581600360003373ffffffffffffffffffffffffffffffffffffffff1673ffffffffffffffffffffffffffffffffffffffff16815260200190815260200160002060007f4554480000000000000000000000000000000000000000000000000000000000815260200190815260200160002054612a6590919063ffffffff16565b600360003373ffffffffffffffffffffffffffffffffffffffff1673ffffffffffffffffffffffffffffffffffffffff16815260200190815260200160002060007f4554480000000000000000000000000000000000000000000000000000000000815260200190815260200160002081905550611c2082600360008a8981548110611b9457611b93613286565b5b906000526020600020906006020160010160009054906101000a900473ffffffffffffffffffffffffffffffffffffffff1673ffffffffffffffffffffffffffffffffffffffff1673ffffffffffffffffffffffffffffffffffffffff16815260200190815260200160002060008d815260200190815260200160002054612a6590919063ffffffff16565b60036000898881548110611c3757611c36613286565b5b906000526020600020906006020160010160009054906101000a900473ffffffffffffffffffffffffffffffffffffffff1673ffffffffffffffffffffffffffffffffffffffff1673ffffffffffffffffffffffffffffffffffffffff16815260200190815260200160002060008c815260200190815260200160002081905550611d7f81600360008a8981548110611cd357611cd2613286565b5b906000526020600020906006020160010160009054906101000a900473ffffffffffffffffffffffffffffffffffffffff1673ffffffffffffffffffffffffffffffffffffffff1673ffffffffffffffffffffffffffffffffffffffff16815260200190815260200160002060007f4554480000000000000000000000000000000000000000000000000000000000815260200190815260200160002054612b5d90919063ffffffff16565b60036000898881548110611d9657611d95613286565b5b906000526020600020906006020160010160009054906101000a900473ffffffffffffffffffffffffffffffffffffffff1673ffffffffffffffffffffffffffffffffffffffff1673ffffffffffffffffffffffffffffffffffffffff16815260200190815260200160002060007f45544800000000000000000000000000000000000000000000000000000000008152602001908152602001600020819055505b5b505050508080611e48906132df565b915050611332565b505b60008280549050118015611eaf575081600081548110611e7557611e74613286565b5b90600052602060002090600602016003015482600081548110611e9b57611e9a613286565b5b906000526020600020906006020160050154145b1561209c5760005b60018380549050611ec89190613252565b8110156120095782600182611edd9190613411565b81548110611eee57611eed613286565b5b9060005260206000209060060201838281548110611f0f57611f0e613286565b5b9060005260206000209060060201600082015481600001556001820160009054906101000a900473ffffffffffffffffffffffffffffffffffffffff168160010160006101000a81548173ffffffffffffffffffffffffffffffffffffffff021916908373ffffffffffffffffffffffffffffffffffffffff1602179055506001820160149054906101000a900460ff168160010160146101000a81548160ff02191690836001811115611fc657611fc5612c87565b5b0217905550600282015481600201556003820154816003015560048201548160040155600582015481600501559050508080612001906132df565b915050611eb7565b508180548061201b5761201a613467565b5b60019003818190600052602060002090600602016000808201600090556001820160006101000a81549073ffffffffffffffffffffffffffffffffffffffff02191690556001820160146101000a81549060ff0219169055600282016000905560038201600090556004820160009055600582016000905550509055611e52565b505050505050565b600281815481106120b457600080fd5b906000526020600020016000915090505481565b80600073ffffffffffffffffffffffffffffffffffffffff166001600083815260200190815260200160002060010160009054906101000a900473ffffffffffffffffffffffffffffffffffffffff1673ffffffffffffffffffffffffffffffffffffffff16141561216f576040517f08c379a0000000000000000000000000000000000000000000000000000000008152600401612166906134e2565b60405180910390fd5b82600360003373ffffffffffffffffffffffffffffffffffffffff1673ffffffffffffffffffffffffffffffffffffffff1681526020019081526020016000206000848152602001908152602001600020541015612202576040517f08c379a00000000000000000000000000000000000000000000000000000000081526004016121f99061354e565b60405180910390fd5b61226583600360003373ffffffffffffffffffffffffffffffffffffffff1673ffffffffffffffffffffffffffffffffffffffff168152602001908152602001600020600085815260200190815260200160002054612b5d90919063ffffffff16565b600360003373ffffffffffffffffffffffffffffffffffffffff1673ffffffffffffffffffffffffffffffffffffffff1681526020019081526020016000206000848152602001908152602001600020819055506001600083815260200190815260200160002060010160009054906101000a900473ffffffffffffffffffffffffffffffffffffffff1673ffffffffffffffffffffffffffffffffffffffff1663a9059cbb33856040518363ffffffff167c010000000000000000000000000000000000000000000000000000000002815260040161234692919061356e565b6020604051808303816000875af1158015612365573d6000803e3d6000fd5b505050506040513d601f19601f8201168201806040525081019061238991906135cf565b50505050565b60606005600084815260200190815260200160002060008360018111156123b9576123b8612c87565b5b8152602001908152602001600020805480602002602001604051908101604052809291908181526020016000905b828210156124dc57838290600052602060002090600602016040518060e0016040529081600082015481526020016001820160009054906101000a900473ffffffffffffffffffffffffffffffffffffffff1673ffffffffffffffffffffffffffffffffffffffff1673ffffffffffffffffffffffffffffffffffffffff1681526020016001820160149054906101000a900460ff16600181111561248f5761248e612c87565b5b60018111156124a1576124a0612c87565b5b8152602001600282015481526020016003820154815260200160048201548152602001600582015481525050815260200190600101906123e7565b50505050905092915050565b80600360003373ffffffffffffffffffffffffffffffffffffffff1673ffffffffffffffffffffffffffffffffffffffff16815260200190815260200160002060007f4554480000000000000000000000000000000000000000000000000000000000815260200190815260200160002054101561259b576040517f08c379a0000000000000000000000000000000000000000000000000000000008152600401612592906133f1565b60405180910390fd5b61261e81600360003373ffffffffffffffffffffffffffffffffffffffff1673ffffffffffffffffffffffffffffffffffffffff16815260200190815260200160002060007f4554480000000000000000000000000000000000000000000000000000000000815260200190815260200160002054612b5d90919063ffffffff16565b600360003373ffffffffffffffffffffffffffffffffffffffff1673ffffffffffffffffffffffffffffffffffffffff16815260200190815260200160002060007f45544800000000000000000000000000000000000000000000000000000000008152602001908152602001600020819055503373ffffffffffffffffffffffffffffffffffffffff16816040516126b69061362d565b60006040518083038185875af1925050503d80600081146126f3576040519150601f19603f3d011682016040523d82523d6000602084013e6126f8565b606091505b50505050565b80600073ffffffffffffffffffffffffffffffffffffffff166001600083815260200190815260200160002060010160009054906101000a900473ffffffffffffffffffffffffffffffffffffffff1673ffffffffffffffffffffffffffffffffffffffff1614156127a5576040517f08c379a000000000000000000000000000000000000000000000000000000000815260040161279c906134e2565b60405180910390fd5b7f0131d4fe789c9eeb7c2dd7e32aa9393d395bef62f1f67e0ba2a76d33c6dcf5ee83836040516127d6929190613642565b60405180910390a16001600083815260200190815260200160002060010160009054906101000a900473ffffffffffffffffffffffffffffffffffffffff1673ffffffffffffffffffffffffffffffffffffffff166323b872dd3330866040518463ffffffff167c010000000000000000000000000000000000000000000000000000000002815260040161286d9392919061366b565b6020604051808303816000875af115801561288c573d6000803e3d6000fd5b505050506040513d601f19601f820116820180604052508101906128b091906135cf565b5061291483600360003373ffffffffffffffffffffffffffffffffffffffff1673ffffffffffffffffffffffffffffffffffffffff168152602001908152602001600020600085815260200190815260200160002054612a6590919063ffffffff16565b600360003373ffffffffffffffffffffffffffffffffffffffff1673ffffffffffffffffffffffffffffffffffffffff168152602001908152602001600020600084815260200190815260200160002081905550505050565b612975612a91565b73ffffffffffffffffffffffffffffffffffffffff166129936110a6565b73ffffffffffffffffffffffffffffffffffffffff16146129e9576040517f08c379a00000000000000000000000000000000000000000000000000000000081526004016129e090613385565b60405180910390fd5b600073ffffffffffffffffffffffffffffffffffffffff168173ffffffffffffffffffffffffffffffffffffffff161415612a59576040517f08c379a0000000000000000000000000000000000000000000000000000000008152600401612a5090613714565b60405180910390fd5b612a6281612a99565b50565b60008183612a739190613411565b905092915050565b60008183612a899190613734565b905092915050565b600033905090565b60008060009054906101000a900473ffffffffffffffffffffffffffffffffffffffff169050816000806101000a81548173ffffffffffffffffffffffffffffffffffffffff021916908373ffffffffffffffffffffffffffffffffffffffff1602179055508173ffffffffffffffffffffffffffffffffffffffff168173ffffffffffffffffffffffffffffffffffffffff167f8be0079c531659141344cd1fd0a4f28419497f9722a3daafe3b4186f6b6457e060405160405180910390a35050565b60008183612b6b9190613252565b905092915050565b600080fd5b6000819050919050565b612b8b81612b78565b8114612b9657600080fd5b50565b600081359050612ba881612b82565b92915050565b6000819050919050565b612bc181612bae565b8114612bcc57600080fd5b50565b600081359050612bde81612bb8565b92915050565b600080600060608486031215612bfd57612bfc612b73565b5b6000612c0b86828701612b99565b9350506020612c1c86828701612bcf565b9250506040612c2d86828701612bcf565b9150509250925092565b612c4081612bae565b82525050565b600073ffffffffffffffffffffffffffffffffffffffff82169050919050565b6000612c7182612c46565b9050919050565b612c8181612c66565b82525050565b7f4e487b7100000000000000000000000000000000000000000000000000000000600052602160045260246000fd5b60028110612cc757612cc6612c87565b5b50565b6000819050612cd882612cb6565b919050565b6000612ce882612cca565b9050919050565b612cf881612cdd565b82525050565b612d0781612b78565b82525050565b600060e082019050612d22600083018a612c37565b612d2f6020830189612c78565b612d3c6040830188612cef565b612d496060830187612cfe565b612d566080830186612c37565b612d6360a0830185612c37565b612d7060c0830184612c37565b98975050505050505050565b612d8581612c66565b8114612d9057600080fd5b50565b600081359050612da281612d7c565b92915050565b60008060408385031215612dbf57612dbe612b73565b5b6000612dcd85828601612d93565b9250506020612dde85828601612b99565b9150509250929050565b6000602082019050612dfd6000830184612c37565b92915050565b600060208284031215612e1957612e18612b73565b5b6000612e2784828501612b99565b91505092915050565b6000604082019050612e456000830185612cfe565b612e526020830184612c78565b9392505050565b60028110612e6657600080fd5b50565b600081359050612e7881612e59565b92915050565b60008060008060808587031215612e9857612e97612b73565b5b6000612ea687828801612e69565b9450506020612eb787828801612b99565b9350506040612ec887828801612bcf565b9250506060612ed987828801612bcf565b91505092959194509250565b6000602082019050612efa6000830184612c78565b92915050565b60008060408385031215612f1757612f16612b73565b5b6000612f2585828601612b99565b9250506020612f3685828601612d93565b9150509250929050565b600080600060608486031215612f5957612f58612b73565b5b6000612f6786828701612e69565b9350506020612f7886828701612b99565b9250506040612f8986828701612bcf565b9150509250925092565b600060208284031215612fa957612fa8612b73565b5b6000612fb784828501612bcf565b91505092915050565b6000602082019050612fd56000830184612cfe565b92915050565b60008060408385031215612ff257612ff1612b73565b5b600061300085828601612bcf565b925050602061301185828601612b99565b9150509250929050565b6000806040838503121561303257613031612b73565b5b600061304085828601612b99565b925050602061305185828601612e69565b9150509250929050565b600081519050919050565b600082825260208201905092915050565b6000819050602082019050919050565b61309081612bae565b82525050565b61309f81612c66565b82525050565b6130ae81612cdd565b82525050565b6130bd81612b78565b82525050565b60e0820160008201516130d96000850182613087565b5060208201516130ec6020850182613096565b5060408201516130ff60408501826130a5565b50606082015161311260608501826130b4565b5060808201516131256080850182613087565b5060a082015161313860a0850182613087565b5060c082015161314b60c0850182613087565b50505050565b600061315d83836130c3565b60e08301905092915050565b6000602082019050919050565b60006131818261305b565b61318b8185613066565b935061319683613077565b8060005b838110156131c75781516131ae8882613151565b97506131b983613169565b92505060018101905061319a565b5085935050505092915050565b600060208201905081810360008301526131ee8184613176565b905092915050565b60006020828403121561320c5761320b612b73565b5b600061321a84828501612d93565b91505092915050565b7f4e487b7100000000000000000000000000000000000000000000000000000000600052601160045260246000fd5b600061325d82612bae565b915061326883612bae565b92508282101561327b5761327a613223565b5b828203905092915050565b7f4e487b7100000000000000000000000000000000000000000000000000000000600052603260045260246000fd5b60006132c082612bae565b915060008214156132d4576132d3613223565b5b600182039050919050565b60006132ea82612bae565b91507fffffffffffffffffffffffffffffffffffffffffffffffffffffffffffffffff82141561331d5761331c613223565b5b600182019050919050565b600082825260208201905092915050565b7f4f776e61626c653a2063616c6c6572206973206e6f7420746865206f776e6572600082015250565b600061336f602083613328565b915061337a82613339565b602082019050919050565b6000602082019050818103600083015261339e81613362565b9050919050565b7f496e7375666669656e742062616c616e63650000000000000000000000000000600082015250565b60006133db601283613328565b91506133e6826133a5565b602082019050919050565b6000602082019050818103600083015261340a816133ce565b9050919050565b600061341c82612bae565b915061342783612bae565b9250827fffffffffffffffffffffffffffffffffffffffffffffffffffffffffffffffff0382111561345c5761345b613223565b5b828201905092915050565b7f4e487b7100000000000000000000000000000000000000000000000000000000600052603160045260246000fd5b7f746f6b656e20646f6573206e6f74206578697374000000000000000000000000600082015250565b60006134cc601483613328565b91506134d782613496565b602082019050919050565b600060208201905081810360008301526134fb816134bf565b9050919050565b7f62616c616e6365206e6f742073756666696369656e7400000000000000000000600082015250565b6000613538601683613328565b915061354382613502565b602082019050919050565b600060208201905081810360008301526135678161352b565b9050919050565b60006040820190506135836000830185612c78565b6135906020830184612c37565b9392505050565b60008115159050919050565b6135ac81613597565b81146135b757600080fd5b50565b6000815190506135c9816135a3565b92915050565b6000602082840312156135e5576135e4612b73565b5b60006135f3848285016135ba565b91505092915050565b600081905092915050565b50565b60006136176000836135fc565b915061362282613607565b600082019050919050565b60006136388261360a565b9150819050919050565b60006040820190506136576000830185612c37565b6136646020830184612cfe565b9392505050565b60006060820190506136806000830186612c78565b61368d6020830185612c78565b61369a6040830184612c37565b949350505050565b7f4f776e61626c653a206e6577206f776e657220697320746865207a65726f206160008201527f6464726573730000000000000000000000000000000000000000000000000000602082015250565b60006136fe602683613328565b9150613709826136a2565b604082019050919050565b6000602082019050818103600083015261372d816136f1565b9050919050565b600061373f82612bae565b915061374a83612bae565b9250817fffffffffffffffffffffffffffffffffffffffffffffffffffffffffffffffff048311821515161561378357613782613223565b5b82820290509291505056fea2646970667358221220899e4deecd7d1bd68899286c9be197549e0657842b539dec900b59e6dbe2146c64736f6c634300080a0033",
  "immutableReferences": {},
  "source": "// SPDX-License-Identifier: UNLICENSED\r\npragma solidity >=0.4.22 <0.9.9;\r\npragma experimental ABIEncoderV2;\r\n\r\nimport \"./wallet.sol\";\r\n\r\n/**\r\n * @title Dex\r\n * @dev Dex contract enables people to trade ETH/tokens\r\n * by creating limit and market orders\r\n */\r\ncontract Dex is Wallet {\r\n\r\n    using SafeMath for uint256;\r\n\r\n    enum Side {\r\n        BUY,\r\n        SELL\r\n    }\r\n\r\n    struct Order {\r\n        uint id;\r\n        address trader;\r\n        Side side;\r\n        bytes32 ticker;\r\n        uint amount;\r\n        uint price;\r\n        uint filled;\r\n    }\r\n\r\n    uint public nextOrderId = 0;\r\n\r\n    mapping(bytes32 => mapping(uint => Order[])) public orderBook;\r\n\r\n    /**\r\n     * @dev Returns orderbook with desired side and ticker\r\n     * @param ticker Represents the symbol of a token\r\n     * @param side Represents if the order is buy/sell    \r\n     */\r\n    function getOrderBook(bytes32 ticker, Side side) view public returns(Order[] memory){\r\n        return orderBook[ticker][uint(side)];\r\n    }\r\n\r\n    /**\r\n     * @dev Allows users to create buy/sell limitOrders\r\n     * @param side Represents if the order is buy/sell\r\n     * @param ticker represents the symbol of a token\r\n     * @param amount Represents the amount of tokens to buy or sell\r\n     * @param price Represents the price at which to buy/sell tokens\r\n     */\r\n    function createLimitOrder(Side side, bytes32 ticker, uint amount, uint price) public{\r\n        if(side == Side.BUY){\r\n            require(balances[msg.sender][\"ETH\"] >= amount.mul(price));\r\n        }\r\n        else if(side == Side.SELL){\r\n            require(balances[msg.sender][ticker] >= amount);\r\n        }\r\n\r\n        Order[] storage orders = orderBook[ticker][uint(side)];\r\n        orders.push(\r\n            Order(nextOrderId, msg.sender, side, ticker, amount, price, 0)\r\n        );\r\n\r\n        //Bubble sort\r\n        uint i = orders.length > 0 ? orders.length - 1 : 0;\r\n        if(side == Side.BUY){\r\n            while(i > 0){\r\n                if(orders[i - 1].price > orders[i].price) {\r\n                    break;\r\n                }\r\n                Order memory orderToMove = orders[i - 1];\r\n                orders[i - 1] = orders[i];\r\n                orders[i] = orderToMove;\r\n                i--;\r\n            }\r\n        }\r\n        else if(side == Side.SELL){\r\n            while(i > 0){\r\n                if(orders[i - 1].price < orders[i].price) {\r\n                    break;   \r\n                }\r\n                Order memory orderToMove = orders[i - 1];\r\n                orders[i - 1] = orders[i];\r\n                orders[i] = orderToMove;\r\n                i--;\r\n            }\r\n        }\r\n\r\n        nextOrderId++;\r\n    }\r\n\r\n    /**\r\n     * @dev Allows users to create buy/sell market orders\r\n     * @param side Represents if the order is buy/sell\r\n     * @param ticker represents the symbol of a token\r\n     * @param amount Represents the amount of tokens to buy or sell\r\n     */\r\n    function createMarketOrder(Side side, bytes32 ticker, uint amount) public{\r\n        if(side == Side.SELL){\r\n            require(balances[msg.sender][ticker] >= amount, \"Insuffient balance\");\r\n        }\r\n        \r\n        uint orderBookSide;\r\n        if(side == Side.BUY){\r\n            orderBookSide = 1;\r\n        }\r\n        else{\r\n            orderBookSide = 0;\r\n        }\r\n        Order[] storage orders = orderBook[ticker][orderBookSide];\r\n\r\n        uint totalFilled = 0;\r\n\r\n        for (uint256 i = 0; i < orders.length && totalFilled < amount; i++) {\r\n            uint leftToFill = amount.sub(totalFilled);\r\n            uint availableToFill = orders[i].amount.sub(orders[i].filled);\r\n            uint filled = 0;\r\n            if(availableToFill > leftToFill){\r\n                filled = leftToFill; //Fill the entire market order\r\n            }\r\n            else{ \r\n                filled = availableToFill; //Fill as much as is available in order[i]\r\n            }\r\n\r\n            totalFilled = totalFilled.add(filled);\r\n            orders[i].filled = orders[i].filled.add(filled);\r\n            uint cost = filled.mul(orders[i].price);\r\n\r\n            if(side == Side.BUY){\r\n                //Verify that the buyer has enough ETH to cover the purchase (require)\r\n                require(balances[msg.sender][\"ETH\"] >= cost);\r\n                //msg.sender is the buyer\r\n                balances[msg.sender][ticker] = balances[msg.sender][ticker].add(filled);\r\n                balances[msg.sender][\"ETH\"] = balances[msg.sender][\"ETH\"].sub(cost);\r\n                \r\n                balances[orders[i].trader][ticker] = balances[orders[i].trader][ticker].sub(filled);\r\n                balances[orders[i].trader][\"ETH\"] = balances[orders[i].trader][\"ETH\"].add(cost);\r\n            }\r\n            else if(side == Side.SELL){\r\n                //Msg.sender is the seller\r\n                balances[msg.sender][ticker] = balances[msg.sender][ticker].sub(filled);\r\n                balances[msg.sender][\"ETH\"] = balances[msg.sender][\"ETH\"].add(cost);\r\n                \r\n                balances[orders[i].trader][ticker] = balances[orders[i].trader][ticker].add(filled);\r\n                balances[orders[i].trader][\"ETH\"] = balances[orders[i].trader][\"ETH\"].sub(cost);\r\n            }\r\n            \r\n        }\r\n            //Remove 100% filled orders from the orderbook\r\n        while(orders.length > 0 && orders[0].filled == orders[0].amount){\r\n            //Remove the top element in the orders array by overwriting every element\r\n            // with the next element in the order list\r\n            for (uint256 i = 0; i < orders.length - 1; i++) {\r\n                orders[i] = orders[i + 1];\r\n            }\r\n            orders.pop();\r\n        }\r\n        \r\n    }\r\n\r\n}",
  "sourcePath": "C:\\Users\\olive\\Documents\\dex\\contracts\\dex.sol",
  "compiler": {
    "name": "solc",
    "version": "0.8.10+commit.fc410830.Emscripten.clang"
  },
  "schemaVersion": "3.4.3",
  "updatedAt": "2021-12-05T21:08:09.696Z",
  "devdoc": {
    "details": "Dex contract enables people to trade ETH/tokens by creating limit and market orders",
    "kind": "dev",
    "methods": {
      "addToken(bytes32,address)": {
        "details": "Allows users to add the capability of  storing a paticular Token on the wallet ",
        "params": {
          "ticker": "Represents the symbol(ticker) of the Token",
          "tokenAddress": "Represents the address for the Token being added"
        }
      },
      "createLimitOrder(uint8,bytes32,uint256,uint256)": {
        "details": "Allows users to create buy/sell limitOrders",
        "params": {
          "amount": "Represents the amount of tokens to buy or sell",
          "price": "Represents the price at which to buy/sell tokens",
          "side": "Represents if the order is buy/sell",
          "ticker": "represents the symbol of a token"
        }
      },
      "createMarketOrder(uint8,bytes32,uint256)": {
        "details": "Allows users to create buy/sell market orders",
        "params": {
          "amount": "Represents the amount of tokens to buy or sell",
          "side": "Represents if the order is buy/sell",
          "ticker": "represents the symbol of a token"
        }
      },
      "deposit(uint256,bytes32)": {
        "details": "Allows users to deposit tokens onto their wallet",
        "params": {
          "amount": "Represents the amount of tokens being deposited",
          "ticker": "Represents the symbol(ticker) of the token being deposited"
        }
      },
      "getOrderBook(bytes32,uint8)": {
        "details": "Returns orderbook with desired side and ticker",
        "params": {
          "side": "Represents if the order is buy/sell    ",
          "ticker": "Represents the symbol of a token"
        }
      },
      "owner()": {
        "details": "Returns the address of the current owner."
      },
      "renounceOwnership()": {
        "details": "Leaves the contract without owner. It will not be possible to call `onlyOwner` functions anymore. Can only be called by the current owner. NOTE: Renouncing ownership will leave the contract without an owner, thereby removing any functionality that is only available to the owner."
      },
      "transferOwnership(address)": {
        "details": "Transfers ownership of the contract to a new account (`newOwner`). Can only be called by the current owner."
      },
      "withdraw(uint256,bytes32)": {
        "details": "Allows users to withraw tokens from wallet ",
        "params": {
          "amount": "Represents the amount of tokens being withdrawn",
          "ticker": "Represents the symbol(ticker) of the tokens being withdrawn"
        }
      }
    },
    "title": "Dex",
    "version": 1
  },
  "userdoc": {
    "kind": "user",
    "methods": {},
    "version": 1
  }
}