{
  "contractName": "Dex",
  "abi": [
    {
      "anonymous": false,
      "inputs": [
        {
          "indexed": false,
          "internalType": "uint256",
          "name": "amount",
          "type": "uint256"
        },
        {
          "indexed": false,
          "internalType": "bytes32",
          "name": "ticker",
          "type": "bytes32"
        }
      ],
      "name": "Deposited",
      "type": "event"
    },
    {
      "anonymous": false,
      "inputs": [
        {
          "indexed": true,
          "internalType": "address",
          "name": "previousOwner",
          "type": "address"
        },
        {
          "indexed": true,
          "internalType": "address",
          "name": "newOwner",
          "type": "address"
        }
      ],
      "name": "OwnershipTransferred",
      "type": "event"
    },
    {
      "inputs": [
        {
          "internalType": "bytes32",
          "name": "ticker",
          "type": "bytes32"
        },
        {
          "internalType": "address",
          "name": "tokenAddress",
          "type": "address"
        }
      ],
      "name": "addToken",
      "outputs": [],
      "stateMutability": "nonpayable",
      "type": "function"
    },
    {
      "inputs": [
        {
          "internalType": "address",
          "name": "",
          "type": "address"
        },
        {
          "internalType": "bytes32",
          "name": "",
          "type": "bytes32"
        }
      ],
      "name": "balances",
      "outputs": [
        {
          "internalType": "uint256",
          "name": "",
          "type": "uint256"
        }
      ],
      "stateMutability": "view",
      "type": "function"
    },
    {
      "inputs": [
        {
          "internalType": "uint256",
          "name": "amount",
          "type": "uint256"
        },
        {
          "internalType": "bytes32",
          "name": "ticker",
          "type": "bytes32"
        }
      ],
      "name": "deposit",
      "outputs": [],
      "stateMutability": "payable",
      "type": "function"
    },
    {
      "inputs": [],
      "name": "owner",
      "outputs": [
        {
          "internalType": "address",
          "name": "",
          "type": "address"
        }
      ],
      "stateMutability": "view",
      "type": "function"
    },
    {
      "inputs": [],
      "name": "renounceOwnership",
      "outputs": [],
      "stateMutability": "nonpayable",
      "type": "function"
    },
    {
      "inputs": [
        {
          "internalType": "uint256",
          "name": "",
          "type": "uint256"
        }
      ],
      "name": "tokenList",
      "outputs": [
        {
          "internalType": "bytes32",
          "name": "",
          "type": "bytes32"
        }
      ],
      "stateMutability": "view",
      "type": "function"
    },
    {
      "inputs": [
        {
          "internalType": "bytes32",
          "name": "",
          "type": "bytes32"
        }
      ],
      "name": "tokenMapping",
      "outputs": [
        {
          "internalType": "bytes32",
          "name": "ticker",
          "type": "bytes32"
        },
        {
          "internalType": "address",
          "name": "tokenAddress",
          "type": "address"
        }
      ],
      "stateMutability": "view",
      "type": "function"
    },
    {
      "inputs": [
        {
          "internalType": "address",
          "name": "newOwner",
          "type": "address"
        }
      ],
      "name": "transferOwnership",
      "outputs": [],
      "stateMutability": "nonpayable",
      "type": "function"
    },
    {
      "inputs": [
        {
          "internalType": "uint256",
          "name": "amount",
          "type": "uint256"
        },
        {
          "internalType": "bytes32",
          "name": "ticker",
          "type": "bytes32"
        }
      ],
      "name": "withdraw",
      "outputs": [],
      "stateMutability": "nonpayable",
      "type": "function"
    },
    {
      "inputs": [
        {
          "internalType": "bytes32",
          "name": "ticker",
          "type": "bytes32"
        },
        {
          "internalType": "enum Dex.BuyOrSell",
          "name": "buyOrSell",
          "type": "uint8"
        }
      ],
      "name": "getOrderBook",
      "outputs": [
        {
          "components": [
            {
              "internalType": "uint256",
              "name": "id",
              "type": "uint256"
            },
            {
              "internalType": "address",
              "name": "trader",
              "type": "address"
            },
            {
              "internalType": "bool",
              "name": "buyOrder",
              "type": "bool"
            },
            {
              "internalType": "bytes32",
              "name": "ticker",
              "type": "bytes32"
            },
            {
              "internalType": "uint256",
              "name": "amount",
              "type": "uint256"
            },
            {
              "internalType": "uint256",
              "name": "price",
              "type": "uint256"
            }
          ],
          "internalType": "struct Dex.Order[]",
          "name": "",
          "type": "tuple[]"
        }
      ],
      "stateMutability": "view",
      "type": "function"
    },
    {
      "inputs": [],
      "name": "createLimitOrder",
      "outputs": [],
      "stateMutability": "nonpayable",
      "type": "function"
    }
  ],
  "bytecode": "0x608060405234801561001057600080fd5b5061002d61002261003260201b60201c565b61003a60201b60201c565b6100fe565b600033905090565b60008060009054906101000a900473ffffffffffffffffffffffffffffffffffffffff169050816000806101000a81548173ffffffffffffffffffffffffffffffffffffffff021916908373ffffffffffffffffffffffffffffffffffffffff1602179055508173ffffffffffffffffffffffffffffffffffffffff168173ffffffffffffffffffffffffffffffffffffffff167f8be0079c531659141344cd1fd0a4f28419497f9722a3daafe3b4186f6b6457e060405160405180910390a35050565b6115bb8061010d6000396000f3fe60806040526004361061009c5760003560e01c80639ead7222116100645780639ead722214610187578063a87f0146146101c4578063a8d2021a146101db578063ba58ea6814610204578063c9630cb014610241578063f2fde38b1461025d5761009c565b80631f14df69146100a1578063667cb4ba146100de578063715018a61461011c5780638da5cb5b146101335780639776aacf1461015e575b600080fd5b3480156100ad57600080fd5b506100c860048036038101906100c39190610db7565b610286565b6040516100d59190610e10565b60405180910390f35b3480156100ea57600080fd5b5061010560048036038101906101009190610e2b565b6102ab565b604051610113929190610e76565b60405180910390f35b34801561012857600080fd5b506101316102ef565b005b34801561013f57600080fd5b50610148610377565b6040516101559190610e9f565b60405180910390f35b34801561016a57600080fd5b5061018560048036038101906101809190610eba565b6103a0565b005b34801561019357600080fd5b506101ae60048036038101906101a99190610f26565b6104db565b6040516101bb9190610f53565b60405180910390f35b3480156101d057600080fd5b506101d96104ff565b005b3480156101e757600080fd5b5061020260048036038101906101fd9190610f6e565b610501565b005b34801561021057600080fd5b5061022b60048036038101906102269190610fd3565b6107ac565b6040516102389190611185565b60405180910390f35b61025b60048036038101906102569190610f6e565b6108db565b005b34801561026957600080fd5b50610284600480360381019061027f91906111a7565b610b2e565b005b6003602052816000526040600020602052806000526040600020600091509150505481565b60016020528060005260406000206000915090508060000154908060010160009054906101000a900473ffffffffffffffffffffffffffffffffffffffff16905082565b6102f7610c26565b73ffffffffffffffffffffffffffffffffffffffff16610315610377565b73ffffffffffffffffffffffffffffffffffffffff161461036b576040517f08c379a000000000000000000000000000000000000000000000000000000000815260040161036290611231565b60405180910390fd5b6103756000610c2e565b565b60008060009054906101000a900473ffffffffffffffffffffffffffffffffffffffff16905090565b6103a8610c26565b73ffffffffffffffffffffffffffffffffffffffff166103c6610377565b73ffffffffffffffffffffffffffffffffffffffff161461041c576040517f08c379a000000000000000000000000000000000000000000000000000000000815260040161041390611231565b60405180910390fd5b60405180604001604052808381526020018273ffffffffffffffffffffffffffffffffffffffff16815250600160008481526020019081526020016000206000820151816000015560208201518160010160006101000a81548173ffffffffffffffffffffffffffffffffffffffff021916908373ffffffffffffffffffffffffffffffffffffffff16021790555090505060028290806001815401808255809150506001900390600052602060002001600090919091909150555050565b600281815481106104eb57600080fd5b906000526020600020016000915090505481565b565b80600073ffffffffffffffffffffffffffffffffffffffff166001600083815260200190815260200160002060010160009054906101000a900473ffffffffffffffffffffffffffffffffffffffff1673ffffffffffffffffffffffffffffffffffffffff1614156105a8576040517f08c379a000000000000000000000000000000000000000000000000000000000815260040161059f9061129d565b60405180910390fd5b82600360003373ffffffffffffffffffffffffffffffffffffffff1673ffffffffffffffffffffffffffffffffffffffff168152602001908152602001600020600084815260200190815260200160002054101561063b576040517f08c379a000000000000000000000000000000000000000000000000000000000815260040161063290611309565b60405180910390fd5b61069e83600360003373ffffffffffffffffffffffffffffffffffffffff1673ffffffffffffffffffffffffffffffffffffffff168152602001908152602001600020600085815260200190815260200160002054610cf290919063ffffffff16565b600360003373ffffffffffffffffffffffffffffffffffffffff1673ffffffffffffffffffffffffffffffffffffffff1681526020019081526020016000206000848152602001908152602001600020819055506001600083815260200190815260200160002060010160009054906101000a900473ffffffffffffffffffffffffffffffffffffffff1673ffffffffffffffffffffffffffffffffffffffff1663a9059cbb33856040518363ffffffff1660e01b8152600401610763929190611329565b6020604051808303816000875af1158015610782573d6000803e3d6000fd5b505050506040513d601f19601f820116820180604052508101906107a6919061137e565b50505050565b60606004600084815260200190815260200160002060008360018111156107d6576107d56113ab565b5b8152602001908152602001600020805480602002602001604051908101604052809291908181526020016000905b828210156108cf57838290600052602060002090600502016040518060c0016040529081600082015481526020016001820160009054906101000a900473ffffffffffffffffffffffffffffffffffffffff1673ffffffffffffffffffffffffffffffffffffffff1673ffffffffffffffffffffffffffffffffffffffff1681526020016001820160149054906101000a900460ff16151515158152602001600282015481526020016003820154815260200160048201548152505081526020019060010190610804565b50505050905092915050565b80600073ffffffffffffffffffffffffffffffffffffffff166001600083815260200190815260200160002060010160009054906101000a900473ffffffffffffffffffffffffffffffffffffffff1673ffffffffffffffffffffffffffffffffffffffff161415610982576040517f08c379a00000000000000000000000000000000000000000000000000000000081526004016109799061129d565b60405180910390fd5b7f0131d4fe789c9eeb7c2dd7e32aa9393d395bef62f1f67e0ba2a76d33c6dcf5ee83836040516109b39291906113da565b60405180910390a16001600083815260200190815260200160002060010160009054906101000a900473ffffffffffffffffffffffffffffffffffffffff1673ffffffffffffffffffffffffffffffffffffffff166323b872dd3330866040518463ffffffff1660e01b8152600401610a2e93929190611403565b6020604051808303816000875af1158015610a4d573d6000803e3d6000fd5b505050506040513d601f19601f82011682018060405250810190610a71919061137e565b50610ad583600360003373ffffffffffffffffffffffffffffffffffffffff1673ffffffffffffffffffffffffffffffffffffffff168152602001908152602001600020600085815260200190815260200160002054610d0890919063ffffffff16565b600360003373ffffffffffffffffffffffffffffffffffffffff1673ffffffffffffffffffffffffffffffffffffffff168152602001908152602001600020600084815260200190815260200160002081905550505050565b610b36610c26565b73ffffffffffffffffffffffffffffffffffffffff16610b54610377565b73ffffffffffffffffffffffffffffffffffffffff1614610baa576040517f08c379a0000000000000000000000000000000000000000000000000000000008152600401610ba190611231565b60405180910390fd5b600073ffffffffffffffffffffffffffffffffffffffff168173ffffffffffffffffffffffffffffffffffffffff161415610c1a576040517f08c379a0000000000000000000000000000000000000000000000000000000008152600401610c11906114ac565b60405180910390fd5b610c2381610c2e565b50565b600033905090565b60008060009054906101000a900473ffffffffffffffffffffffffffffffffffffffff169050816000806101000a81548173ffffffffffffffffffffffffffffffffffffffff021916908373ffffffffffffffffffffffffffffffffffffffff1602179055508173ffffffffffffffffffffffffffffffffffffffff168173ffffffffffffffffffffffffffffffffffffffff167f8be0079c531659141344cd1fd0a4f28419497f9722a3daafe3b4186f6b6457e060405160405180910390a35050565b60008183610d0091906114fb565b905092915050565b60008183610d16919061152f565b905092915050565b600080fd5b600073ffffffffffffffffffffffffffffffffffffffff82169050919050565b6000610d4e82610d23565b9050919050565b610d5e81610d43565b8114610d6957600080fd5b50565b600081359050610d7b81610d55565b92915050565b6000819050919050565b610d9481610d81565b8114610d9f57600080fd5b50565b600081359050610db181610d8b565b92915050565b60008060408385031215610dce57610dcd610d1e565b5b6000610ddc85828601610d6c565b9250506020610ded85828601610da2565b9150509250929050565b6000819050919050565b610e0a81610df7565b82525050565b6000602082019050610e256000830184610e01565b92915050565b600060208284031215610e4157610e40610d1e565b5b6000610e4f84828501610da2565b91505092915050565b610e6181610d81565b82525050565b610e7081610d43565b82525050565b6000604082019050610e8b6000830185610e58565b610e986020830184610e67565b9392505050565b6000602082019050610eb46000830184610e67565b92915050565b60008060408385031215610ed157610ed0610d1e565b5b6000610edf85828601610da2565b9250506020610ef085828601610d6c565b9150509250929050565b610f0381610df7565b8114610f0e57600080fd5b50565b600081359050610f2081610efa565b92915050565b600060208284031215610f3c57610f3b610d1e565b5b6000610f4a84828501610f11565b91505092915050565b6000602082019050610f686000830184610e58565b92915050565b60008060408385031215610f8557610f84610d1e565b5b6000610f9385828601610f11565b9250506020610fa485828601610da2565b9150509250929050565b60028110610fbb57600080fd5b50565b600081359050610fcd81610fae565b92915050565b60008060408385031215610fea57610fe9610d1e565b5b6000610ff885828601610da2565b925050602061100985828601610fbe565b9150509250929050565b600081519050919050565b600082825260208201905092915050565b6000819050602082019050919050565b61104881610df7565b82525050565b61105781610d43565b82525050565b60008115159050919050565b6110728161105d565b82525050565b61108181610d81565b82525050565b60c08201600082015161109d600085018261103f565b5060208201516110b0602085018261104e565b5060408201516110c36040850182611069565b5060608201516110d66060850182611078565b5060808201516110e9608085018261103f565b5060a08201516110fc60a085018261103f565b50505050565b600061110e8383611087565b60c08301905092915050565b6000602082019050919050565b600061113282611013565b61113c818561101e565b93506111478361102f565b8060005b8381101561117857815161115f8882611102565b975061116a8361111a565b92505060018101905061114b565b5085935050505092915050565b6000602082019050818103600083015261119f8184611127565b905092915050565b6000602082840312156111bd576111bc610d1e565b5b60006111cb84828501610d6c565b91505092915050565b600082825260208201905092915050565b7f4f776e61626c653a2063616c6c6572206973206e6f7420746865206f776e6572600082015250565b600061121b6020836111d4565b9150611226826111e5565b602082019050919050565b6000602082019050818103600083015261124a8161120e565b9050919050565b7f746f6b656e20646f6573206e6f74206578697374000000000000000000000000600082015250565b60006112876014836111d4565b915061129282611251565b602082019050919050565b600060208201905081810360008301526112b68161127a565b9050919050565b7f62616c616e6365206e6f742073756666696369656e7400000000000000000000600082015250565b60006112f36016836111d4565b91506112fe826112bd565b602082019050919050565b60006020820190508181036000830152611322816112e6565b9050919050565b600060408201905061133e6000830185610e67565b61134b6020830184610e01565b9392505050565b61135b8161105d565b811461136657600080fd5b50565b60008151905061137881611352565b92915050565b60006020828403121561139457611393610d1e565b5b60006113a284828501611369565b91505092915050565b7f4e487b7100000000000000000000000000000000000000000000000000000000600052602160045260246000fd5b60006040820190506113ef6000830185610e01565b6113fc6020830184610e58565b9392505050565b60006060820190506114186000830186610e67565b6114256020830185610e67565b6114326040830184610e01565b949350505050565b7f4f776e61626c653a206e6577206f776e657220697320746865207a65726f206160008201527f6464726573730000000000000000000000000000000000000000000000000000602082015250565b60006114966026836111d4565b91506114a18261143a565b604082019050919050565b600060208201905081810360008301526114c581611489565b9050919050565b7f4e487b7100000000000000000000000000000000000000000000000000000000600052601160045260246000fd5b600061150682610df7565b915061151183610df7565b925082821015611524576115236114cc565b5b828203905092915050565b600061153a82610df7565b915061154583610df7565b9250827fffffffffffffffffffffffffffffffffffffffffffffffffffffffffffffffff0382111561157a576115796114cc565b5b82820190509291505056fea264697066735822122061acdbddc77e15fe6b0f718c6f7a0f87e8de3a2b539e074c8e64daae1ede6f8364736f6c634300080a0033",
  "immutableReferences": {},
  "source": "// SPDX-License-Identifier: UNLICENSED\r\npragma solidity >=0.4.22 <0.9.9;\r\nimport \"./wallet.sol\";\r\n\r\ncontract Dex is Wallet {\r\n\r\n    enum BuyOrSell{BUY, SELL}\r\n\r\n    struct Order {\r\n        uint id;\r\n        address trader;\r\n        bool buyOrder;\r\n        bytes32 ticker;\r\n        uint amount;\r\n        uint price;\r\n    }\r\n\r\n    // Order book point from asset to buy/sell to array of orders\r\n    mapping(bytes32 => mapping(uint => Order[])) orderBook;\r\n\r\n    // To get the order-book you need the asset(ticker) and buy/sell\r\n    function getOrderBook(bytes32 ticker, BuyOrSell buyOrSell ) public view returns(Order[] memory) {\r\n        return orderBook[ticker][uint(buyOrSell)];\r\n    }\r\n\r\n    function createLimitOrder() public {}\r\n\r\n    \r\n\r\n}",
  "sourcePath": "C:\\Users\\olive\\Documents\\dex\\contracts\\dex.sol",
  "compiler": {
    "name": "solc",
    "version": "0.8.10+commit.fc410830.Emscripten.clang"
  },
  "schemaVersion": "3.4.3",
  "updatedAt": "2021-11-26T18:36:09.252Z",
  "devdoc": {
    "kind": "dev",
    "methods": {
      "addToken(bytes32,address)": {
        "details": "Allows users to add the capability of  storing a paticular Token on the wallet ",
        "params": {
          "ticker": "Represents the symbol(ticker) of the Token",
          "tokenAddress": "Represents the address for the Token being added"
        }
      },
      "deposit(uint256,bytes32)": {
        "details": "Allows users to deposit tokens onto their wallet",
        "params": {
          "amount": "Represents the amount of tokens being deposited",
          "ticker": "Represents the symbol(ticker) of the token being deposited"
        }
      },
      "owner()": {
        "details": "Returns the address of the current owner."
      },
      "renounceOwnership()": {
        "details": "Leaves the contract without owner. It will not be possible to call `onlyOwner` functions anymore. Can only be called by the current owner. NOTE: Renouncing ownership will leave the contract without an owner, thereby removing any functionality that is only available to the owner."
      },
      "transferOwnership(address)": {
        "details": "Transfers ownership of the contract to a new account (`newOwner`). Can only be called by the current owner."
      },
      "withdraw(uint256,bytes32)": {
        "details": "Allows users to withraw tokens from wallet ",
        "params": {
          "amount": "Represents the amount of tokens being withdrawn",
          "ticker": "Represents the symbol(ticker) of the tokens being withdrawn"
        }
      }
    },
    "version": 1
  },
  "userdoc": {
    "kind": "user",
    "methods": {},
    "version": 1
  }
}