{
  "contractName": "Wallet",
  "abi": [
    {
      "anonymous": false,
      "inputs": [
        {
          "indexed": false,
          "internalType": "uint256",
          "name": "amount",
          "type": "uint256"
        },
        {
          "indexed": false,
          "internalType": "bytes32",
          "name": "ticker",
          "type": "bytes32"
        }
      ],
      "name": "Deposited",
      "type": "event"
    },
    {
      "anonymous": false,
      "inputs": [
        {
          "indexed": true,
          "internalType": "address",
          "name": "previousOwner",
          "type": "address"
        },
        {
          "indexed": true,
          "internalType": "address",
          "name": "newOwner",
          "type": "address"
        }
      ],
      "name": "OwnershipTransferred",
      "type": "event"
    },
    {
      "inputs": [
        {
          "internalType": "address",
          "name": "",
          "type": "address"
        },
        {
          "internalType": "bytes32",
          "name": "",
          "type": "bytes32"
        }
      ],
      "name": "balances",
      "outputs": [
        {
          "internalType": "uint256",
          "name": "",
          "type": "uint256"
        }
      ],
      "stateMutability": "view",
      "type": "function"
    },
    {
      "inputs": [],
      "name": "owner",
      "outputs": [
        {
          "internalType": "address",
          "name": "",
          "type": "address"
        }
      ],
      "stateMutability": "view",
      "type": "function"
    },
    {
      "inputs": [],
      "name": "renounceOwnership",
      "outputs": [],
      "stateMutability": "nonpayable",
      "type": "function"
    },
    {
      "inputs": [
        {
          "internalType": "uint256",
          "name": "",
          "type": "uint256"
        }
      ],
      "name": "tokenList",
      "outputs": [
        {
          "internalType": "bytes32",
          "name": "",
          "type": "bytes32"
        }
      ],
      "stateMutability": "view",
      "type": "function"
    },
    {
      "inputs": [
        {
          "internalType": "bytes32",
          "name": "",
          "type": "bytes32"
        }
      ],
      "name": "tokenMapping",
      "outputs": [
        {
          "internalType": "bytes32",
          "name": "ticker",
          "type": "bytes32"
        },
        {
          "internalType": "address",
          "name": "tokenAddress",
          "type": "address"
        }
      ],
      "stateMutability": "view",
      "type": "function"
    },
    {
      "inputs": [
        {
          "internalType": "address",
          "name": "newOwner",
          "type": "address"
        }
      ],
      "name": "transferOwnership",
      "outputs": [],
      "stateMutability": "nonpayable",
      "type": "function"
    },
    {
      "inputs": [
        {
          "internalType": "bytes32",
          "name": "ticker",
          "type": "bytes32"
        },
        {
          "internalType": "address",
          "name": "tokenAddress",
          "type": "address"
        }
      ],
      "name": "addToken",
      "outputs": [],
      "stateMutability": "nonpayable",
      "type": "function"
    },
    {
      "inputs": [
        {
          "internalType": "uint256",
          "name": "amount",
          "type": "uint256"
        },
        {
          "internalType": "bytes32",
          "name": "ticker",
          "type": "bytes32"
        }
      ],
      "name": "deposit",
      "outputs": [],
      "stateMutability": "payable",
      "type": "function"
    },
    {
      "inputs": [
        {
          "internalType": "uint256",
          "name": "amount",
          "type": "uint256"
        },
        {
          "internalType": "bytes32",
          "name": "ticker",
          "type": "bytes32"
        }
      ],
      "name": "withdraw",
      "outputs": [],
      "stateMutability": "nonpayable",
      "type": "function"
    },
    {
      "inputs": [],
      "name": "depositEth",
      "outputs": [],
      "stateMutability": "payable",
      "type": "function"
    },
    {
      "inputs": [
        {
          "internalType": "uint256",
          "name": "amount",
          "type": "uint256"
        }
      ],
      "name": "withdrawEth",
      "outputs": [],
      "stateMutability": "nonpayable",
      "type": "function"
    }
  ],
  "bytecode": "0x608060405234801561001057600080fd5b5061003f61002b610044640100000000026401000000009004565b61004c640100000000026401000000009004565b610110565b600033905090565b60008060009054906101000a900473ffffffffffffffffffffffffffffffffffffffff169050816000806101000a81548173ffffffffffffffffffffffffffffffffffffffff021916908373ffffffffffffffffffffffffffffffffffffffff1602179055508173ffffffffffffffffffffffffffffffffffffffff168173ffffffffffffffffffffffffffffffffffffffff167f8be0079c531659141344cd1fd0a4f28419497f9722a3daafe3b4186f6b6457e060405160405180910390a35050565b6116638061011f6000396000f3fe6080604052600436106100b9576000357c0100000000000000000000000000000000000000000000000000000000900480639776aacf116100815780639776aacf146101855780639ead7222146101ae578063a8d2021a146101eb578063c311d04914610214578063c9630cb01461023d578063f2fde38b14610259576100b9565b80631f14df69146100be578063439370b1146100fb578063667cb4ba14610105578063715018a6146101435780638da5cb5b1461015a575b600080fd5b3480156100ca57600080fd5b506100e560048036038101906100e09190610fc9565b610282565b6040516100f29190611022565b60405180910390f35b6101036102a7565b005b34801561011157600080fd5b5061012c6004803603810190610127919061103d565b6103a0565b60405161013a929190611088565b60405180910390f35b34801561014f57600080fd5b506101586103e4565b005b34801561016657600080fd5b5061016f61046c565b60405161017c91906110b1565b60405180910390f35b34801561019157600080fd5b506101ac60048036038101906101a791906110cc565b610495565b005b3480156101ba57600080fd5b506101d560048036038101906101d09190611138565b6105d0565b6040516101e29190611165565b60405180910390f35b3480156101f757600080fd5b50610212600480360381019061020d9190611180565b6105f4565b005b34801561022057600080fd5b5061023b60048036038101906102369190611138565b6108bb565b005b61025760048036038101906102529190611180565b610ad1565b005b34801561026557600080fd5b50610280600480360381019061027b91906111c0565b610d40565b005b6003602052816000526040600020602052806000526040600020600091509150505481565b61032a34600360003373ffffffffffffffffffffffffffffffffffffffff1673ffffffffffffffffffffffffffffffffffffffff16815260200190815260200160002060007f4554480000000000000000000000000000000000000000000000000000000000815260200190815260200160002054610e3890919063ffffffff16565b600360003373ffffffffffffffffffffffffffffffffffffffff1673ffffffffffffffffffffffffffffffffffffffff16815260200190815260200160002060007f4554480000000000000000000000000000000000000000000000000000000000815260200190815260200160002081905550565b60016020528060005260406000206000915090508060000154908060010160009054906101000a900473ffffffffffffffffffffffffffffffffffffffff16905082565b6103ec610e4e565b73ffffffffffffffffffffffffffffffffffffffff1661040a61046c565b73ffffffffffffffffffffffffffffffffffffffff1614610460576040517f08c379a00000000000000000000000000000000000000000000000000000000081526004016104579061124a565b60405180910390fd5b61046a6000610e56565b565b60008060009054906101000a900473ffffffffffffffffffffffffffffffffffffffff16905090565b61049d610e4e565b73ffffffffffffffffffffffffffffffffffffffff166104bb61046c565b73ffffffffffffffffffffffffffffffffffffffff1614610511576040517f08c379a00000000000000000000000000000000000000000000000000000000081526004016105089061124a565b60405180910390fd5b60405180604001604052808381526020018273ffffffffffffffffffffffffffffffffffffffff16815250600160008481526020019081526020016000206000820151816000015560208201518160010160006101000a81548173ffffffffffffffffffffffffffffffffffffffff021916908373ffffffffffffffffffffffffffffffffffffffff16021790555090505060028290806001815401808255809150506001900390600052602060002001600090919091909150555050565b600281815481106105e057600080fd5b906000526020600020016000915090505481565b80600073ffffffffffffffffffffffffffffffffffffffff166001600083815260200190815260200160002060010160009054906101000a900473ffffffffffffffffffffffffffffffffffffffff1673ffffffffffffffffffffffffffffffffffffffff16141561069b576040517f08c379a0000000000000000000000000000000000000000000000000000000008152600401610692906112b6565b60405180910390fd5b82600360003373ffffffffffffffffffffffffffffffffffffffff1673ffffffffffffffffffffffffffffffffffffffff168152602001908152602001600020600084815260200190815260200160002054101561072e576040517f08c379a000000000000000000000000000000000000000000000000000000000815260040161072590611322565b60405180910390fd5b61079183600360003373ffffffffffffffffffffffffffffffffffffffff1673ffffffffffffffffffffffffffffffffffffffff168152602001908152602001600020600085815260200190815260200160002054610f1a90919063ffffffff16565b600360003373ffffffffffffffffffffffffffffffffffffffff1673ffffffffffffffffffffffffffffffffffffffff1681526020019081526020016000206000848152602001908152602001600020819055506001600083815260200190815260200160002060010160009054906101000a900473ffffffffffffffffffffffffffffffffffffffff1673ffffffffffffffffffffffffffffffffffffffff1663a9059cbb33856040518363ffffffff167c0100000000000000000000000000000000000000000000000000000000028152600401610872929190611342565b6020604051808303816000875af1158015610891573d6000803e3d6000fd5b505050506040513d601f19601f820116820180604052508101906108b591906113a3565b50505050565b80600360003373ffffffffffffffffffffffffffffffffffffffff1673ffffffffffffffffffffffffffffffffffffffff16815260200190815260200160002060007f4554480000000000000000000000000000000000000000000000000000000000815260200190815260200160002054101561096e576040517f08c379a00000000000000000000000000000000000000000000000000000000081526004016109659061141c565b60405180910390fd5b6109f181600360003373ffffffffffffffffffffffffffffffffffffffff1673ffffffffffffffffffffffffffffffffffffffff16815260200190815260200160002060007f4554480000000000000000000000000000000000000000000000000000000000815260200190815260200160002054610f1a90919063ffffffff16565b600360003373ffffffffffffffffffffffffffffffffffffffff1673ffffffffffffffffffffffffffffffffffffffff16815260200190815260200160002060007f45544800000000000000000000000000000000000000000000000000000000008152602001908152602001600020819055503373ffffffffffffffffffffffffffffffffffffffff1681604051610a899061146d565b60006040518083038185875af1925050503d8060008114610ac6576040519150601f19603f3d011682016040523d82523d6000602084013e610acb565b606091505b50505050565b80600073ffffffffffffffffffffffffffffffffffffffff166001600083815260200190815260200160002060010160009054906101000a900473ffffffffffffffffffffffffffffffffffffffff1673ffffffffffffffffffffffffffffffffffffffff161415610b78576040517f08c379a0000000000000000000000000000000000000000000000000000000008152600401610b6f906112b6565b60405180910390fd5b7f0131d4fe789c9eeb7c2dd7e32aa9393d395bef62f1f67e0ba2a76d33c6dcf5ee8383604051610ba9929190611482565b60405180910390a16001600083815260200190815260200160002060010160009054906101000a900473ffffffffffffffffffffffffffffffffffffffff1673ffffffffffffffffffffffffffffffffffffffff166323b872dd3330866040518463ffffffff167c0100000000000000000000000000000000000000000000000000000000028152600401610c40939291906114ab565b6020604051808303816000875af1158015610c5f573d6000803e3d6000fd5b505050506040513d601f19601f82011682018060405250810190610c8391906113a3565b50610ce783600360003373ffffffffffffffffffffffffffffffffffffffff1673ffffffffffffffffffffffffffffffffffffffff168152602001908152602001600020600085815260200190815260200160002054610e3890919063ffffffff16565b600360003373ffffffffffffffffffffffffffffffffffffffff1673ffffffffffffffffffffffffffffffffffffffff168152602001908152602001600020600084815260200190815260200160002081905550505050565b610d48610e4e565b73ffffffffffffffffffffffffffffffffffffffff16610d6661046c565b73ffffffffffffffffffffffffffffffffffffffff1614610dbc576040517f08c379a0000000000000000000000000000000000000000000000000000000008152600401610db39061124a565b60405180910390fd5b600073ffffffffffffffffffffffffffffffffffffffff168173ffffffffffffffffffffffffffffffffffffffff161415610e2c576040517f08c379a0000000000000000000000000000000000000000000000000000000008152600401610e2390611554565b60405180910390fd5b610e3581610e56565b50565b60008183610e4691906115a3565b905092915050565b600033905090565b60008060009054906101000a900473ffffffffffffffffffffffffffffffffffffffff169050816000806101000a81548173ffffffffffffffffffffffffffffffffffffffff021916908373ffffffffffffffffffffffffffffffffffffffff1602179055508173ffffffffffffffffffffffffffffffffffffffff168173ffffffffffffffffffffffffffffffffffffffff167f8be0079c531659141344cd1fd0a4f28419497f9722a3daafe3b4186f6b6457e060405160405180910390a35050565b60008183610f2891906115f9565b905092915050565b600080fd5b600073ffffffffffffffffffffffffffffffffffffffff82169050919050565b6000610f6082610f35565b9050919050565b610f7081610f55565b8114610f7b57600080fd5b50565b600081359050610f8d81610f67565b92915050565b6000819050919050565b610fa681610f93565b8114610fb157600080fd5b50565b600081359050610fc381610f9d565b92915050565b60008060408385031215610fe057610fdf610f30565b5b6000610fee85828601610f7e565b9250506020610fff85828601610fb4565b9150509250929050565b6000819050919050565b61101c81611009565b82525050565b60006020820190506110376000830184611013565b92915050565b60006020828403121561105357611052610f30565b5b600061106184828501610fb4565b91505092915050565b61107381610f93565b82525050565b61108281610f55565b82525050565b600060408201905061109d600083018561106a565b6110aa6020830184611079565b9392505050565b60006020820190506110c66000830184611079565b92915050565b600080604083850312156110e3576110e2610f30565b5b60006110f185828601610fb4565b925050602061110285828601610f7e565b9150509250929050565b61111581611009565b811461112057600080fd5b50565b6000813590506111328161110c565b92915050565b60006020828403121561114e5761114d610f30565b5b600061115c84828501611123565b91505092915050565b600060208201905061117a600083018461106a565b92915050565b6000806040838503121561119757611196610f30565b5b60006111a585828601611123565b92505060206111b685828601610fb4565b9150509250929050565b6000602082840312156111d6576111d5610f30565b5b60006111e484828501610f7e565b91505092915050565b600082825260208201905092915050565b7f4f776e61626c653a2063616c6c6572206973206e6f7420746865206f776e6572600082015250565b60006112346020836111ed565b915061123f826111fe565b602082019050919050565b6000602082019050818103600083015261126381611227565b9050919050565b7f746f6b656e20646f6573206e6f74206578697374000000000000000000000000600082015250565b60006112a06014836111ed565b91506112ab8261126a565b602082019050919050565b600060208201905081810360008301526112cf81611293565b9050919050565b7f62616c616e6365206e6f742073756666696369656e7400000000000000000000600082015250565b600061130c6016836111ed565b9150611317826112d6565b602082019050919050565b6000602082019050818103600083015261133b816112ff565b9050919050565b60006040820190506113576000830185611079565b6113646020830184611013565b9392505050565b60008115159050919050565b6113808161136b565b811461138b57600080fd5b50565b60008151905061139d81611377565b92915050565b6000602082840312156113b9576113b8610f30565b5b60006113c78482850161138e565b91505092915050565b7f496e7375666669656e742062616c616e63650000000000000000000000000000600082015250565b60006114066012836111ed565b9150611411826113d0565b602082019050919050565b60006020820190508181036000830152611435816113f9565b9050919050565b600081905092915050565b50565b600061145760008361143c565b915061146282611447565b600082019050919050565b60006114788261144a565b9150819050919050565b60006040820190506114976000830185611013565b6114a4602083018461106a565b9392505050565b60006060820190506114c06000830186611079565b6114cd6020830185611079565b6114da6040830184611013565b949350505050565b7f4f776e61626c653a206e6577206f776e657220697320746865207a65726f206160008201527f6464726573730000000000000000000000000000000000000000000000000000602082015250565b600061153e6026836111ed565b9150611549826114e2565b604082019050919050565b6000602082019050818103600083015261156d81611531565b9050919050565b7f4e487b7100000000000000000000000000000000000000000000000000000000600052601160045260246000fd5b60006115ae82611009565b91506115b983611009565b9250827fffffffffffffffffffffffffffffffffffffffffffffffffffffffffffffffff038211156115ee576115ed611574565b5b828201905092915050565b600061160482611009565b915061160f83611009565b92508282101561162257611621611574565b5b82820390509291505056fea2646970667358221220a1b3cb30eca4f5774b26db1a6fd56b23e1784f8e64df41af7fb77e76c44cd1af64736f6c634300080a0033",
  "immutableReferences": {},
  "source": "// SPDX-License-Identifier: UNLICENSED\r\npragma solidity >=0.4.22 <0.9.9;\r\nimport \"@openzeppelin/contracts/token/ERC20/IERC20.sol\";\r\nimport \"@openzeppelin/contracts/utils/math/SafeMath.sol\";\r\nimport \"@openzeppelin/contracts/access/Ownable.sol\";\r\n\r\n/**\r\n * @title Wallet\r\n * @dev Wallet contract enables dex users \r\n * to store their cryptocurrencies\r\n */\r\ncontract Wallet is Ownable {\r\n    using SafeMath for uint256;\r\n    \r\n    modifier tokenExists(bytes32 ticker){\r\n            require(tokenMapping[ticker].tokenAddress != address(0), \"token does not exist\");\r\n            _;\r\n        }\r\n\r\n    struct Token {\r\n            bytes32 ticker;\r\n            address tokenAddress;\r\n        }\r\n\r\n    // Mapping from ticker to the Token   \r\n    mapping(bytes32 => Token) public tokenMapping;\r\n    \r\n    // Array storing all tickers(list of tokens)\r\n    bytes32[] public tokenList;\r\n\r\n    // Mapping from address -> ticker -> amount(quantity of tokens in balance)\r\n    mapping(address=> mapping(bytes32 => uint256)) public balances;\r\n\r\n    // Event emited when tokens are deposited\r\n    event Deposited(uint amount, bytes32 ticker);\r\n\r\n    /**\r\n     * @dev Allows users to add the capability of \r\n     * storing a paticular Token on the wallet \r\n     * @param ticker Represents the symbol(ticker) of the Token\r\n     * @param tokenAddress Represents the address for the Token being added\r\n     */\r\n    function addToken(bytes32 ticker, address tokenAddress) external onlyOwner {\r\n        tokenMapping[ticker] = Token(ticker, tokenAddress);\r\n        tokenList.push(ticker);\r\n    }\r\n\r\n    /**\r\n     * @dev Allows users to deposit tokens onto their wallet\r\n     * @param amount Represents the amount of tokens being deposited\r\n     * @param ticker Represents the symbol(ticker) of the token being deposited\r\n     */\r\n    function deposit(uint amount, bytes32 ticker) payable external tokenExists(ticker) {\r\n        emit Deposited(amount, ticker);\r\n        IERC20(tokenMapping[ticker].tokenAddress).transferFrom(msg.sender, address(this), amount);\r\n        balances[msg.sender][ticker] = balances[msg.sender][ticker].add(amount);\r\n    }\r\n\r\n    /**\r\n     * @dev Allows users to withraw tokens from wallet \r\n     * @param amount Represents the amount of tokens being withdrawn\r\n     * @param ticker Represents the symbol(ticker) of the tokens being withdrawn\r\n     */\r\n    function withdraw(uint amount, bytes32 ticker) external tokenExists(ticker) {\r\n        require(balances[msg.sender][ticker] >= amount, \"balance not sufficient\");\r\n        \r\n        balances[msg.sender][ticker] = balances[msg.sender][ticker].sub(amount);\r\n        IERC20(tokenMapping[ticker].tokenAddress).transfer(msg.sender, amount);\r\n    }\r\n\r\n    function depositEth() payable external {\r\n        balances[msg.sender][bytes32(\"ETH\")] = balances[msg.sender][bytes32(\"ETH\")].add(msg.value);\r\n    }\r\n    \r\n    function withdrawEth(uint amount) external {\r\n        require(balances[msg.sender][bytes32(\"ETH\")] >= amount,'Insuffient balance'); \r\n        balances[msg.sender][bytes32(\"ETH\")] = balances[msg.sender][bytes32(\"ETH\")].sub(amount);\r\n        msg.sender.call{value:amount}(\"\");\r\n    }\r\n\r\n}",
  "sourcePath": "C:\\Users\\olive\\Documents\\dex\\contracts\\wallet.sol",
  "compiler": {
    "name": "solc",
    "version": "0.8.10+commit.fc410830.Emscripten.clang"
  },
  "schemaVersion": "3.4.3",
  "updatedAt": "2021-12-05T21:08:09.721Z",
  "devdoc": {
    "details": "Wallet contract enables dex users  to store their cryptocurrencies",
    "kind": "dev",
    "methods": {
      "addToken(bytes32,address)": {
        "details": "Allows users to add the capability of  storing a paticular Token on the wallet ",
        "params": {
          "ticker": "Represents the symbol(ticker) of the Token",
          "tokenAddress": "Represents the address for the Token being added"
        }
      },
      "deposit(uint256,bytes32)": {
        "details": "Allows users to deposit tokens onto their wallet",
        "params": {
          "amount": "Represents the amount of tokens being deposited",
          "ticker": "Represents the symbol(ticker) of the token being deposited"
        }
      },
      "owner()": {
        "details": "Returns the address of the current owner."
      },
      "renounceOwnership()": {
        "details": "Leaves the contract without owner. It will not be possible to call `onlyOwner` functions anymore. Can only be called by the current owner. NOTE: Renouncing ownership will leave the contract without an owner, thereby removing any functionality that is only available to the owner."
      },
      "transferOwnership(address)": {
        "details": "Transfers ownership of the contract to a new account (`newOwner`). Can only be called by the current owner."
      },
      "withdraw(uint256,bytes32)": {
        "details": "Allows users to withraw tokens from wallet ",
        "params": {
          "amount": "Represents the amount of tokens being withdrawn",
          "ticker": "Represents the symbol(ticker) of the tokens being withdrawn"
        }
      }
    },
    "title": "Wallet",
    "version": 1
  },
  "userdoc": {
    "kind": "user",
    "methods": {},
    "version": 1
  }
}