{
  "_format": "hh-sol-artifact-1",
  "contractName": "Wallet",
  "sourceName": "contracts/wallet.sol",
  "abi": [
    {
      "anonymous": false,
      "inputs": [
        {
          "indexed": false,
          "internalType": "uint256",
          "name": "amount",
          "type": "uint256"
        },
        {
          "indexed": false,
          "internalType": "bytes32",
          "name": "ticker",
          "type": "bytes32"
        }
      ],
      "name": "Deposited",
      "type": "event"
    },
    {
      "anonymous": false,
      "inputs": [
        {
          "indexed": true,
          "internalType": "address",
          "name": "previousOwner",
          "type": "address"
        },
        {
          "indexed": true,
          "internalType": "address",
          "name": "newOwner",
          "type": "address"
        }
      ],
      "name": "OwnershipTransferred",
      "type": "event"
    },
    {
      "anonymous": false,
      "inputs": [
        {
          "indexed": false,
          "internalType": "uint256",
          "name": "amount",
          "type": "uint256"
        },
        {
          "indexed": false,
          "internalType": "bytes32",
          "name": "ticker",
          "type": "bytes32"
        }
      ],
      "name": "Withdraw",
      "type": "event"
    },
    {
      "inputs": [
        {
          "internalType": "bytes32",
          "name": "ticker",
          "type": "bytes32"
        },
        {
          "internalType": "address",
          "name": "tokenAddress",
          "type": "address"
        }
      ],
      "name": "addToken",
      "outputs": [],
      "stateMutability": "nonpayable",
      "type": "function"
    },
    {
      "inputs": [
        {
          "internalType": "address",
          "name": "",
          "type": "address"
        },
        {
          "internalType": "bytes32",
          "name": "",
          "type": "bytes32"
        }
      ],
      "name": "balances",
      "outputs": [
        {
          "internalType": "uint256",
          "name": "",
          "type": "uint256"
        }
      ],
      "stateMutability": "view",
      "type": "function"
    },
    {
      "inputs": [
        {
          "internalType": "uint256",
          "name": "amount",
          "type": "uint256"
        },
        {
          "internalType": "bytes32",
          "name": "ticker",
          "type": "bytes32"
        }
      ],
      "name": "deposit",
      "outputs": [],
      "stateMutability": "payable",
      "type": "function"
    },
    {
      "inputs": [],
      "name": "depositEth",
      "outputs": [],
      "stateMutability": "payable",
      "type": "function"
    },
    {
      "inputs": [],
      "name": "owner",
      "outputs": [
        {
          "internalType": "address",
          "name": "",
          "type": "address"
        }
      ],
      "stateMutability": "view",
      "type": "function"
    },
    {
      "inputs": [],
      "name": "renounceOwnership",
      "outputs": [],
      "stateMutability": "nonpayable",
      "type": "function"
    },
    {
      "inputs": [
        {
          "internalType": "uint256",
          "name": "",
          "type": "uint256"
        }
      ],
      "name": "tokenList",
      "outputs": [
        {
          "internalType": "bytes32",
          "name": "",
          "type": "bytes32"
        }
      ],
      "stateMutability": "view",
      "type": "function"
    },
    {
      "inputs": [
        {
          "internalType": "bytes32",
          "name": "",
          "type": "bytes32"
        }
      ],
      "name": "tokenMapping",
      "outputs": [
        {
          "internalType": "bytes32",
          "name": "ticker",
          "type": "bytes32"
        },
        {
          "internalType": "address",
          "name": "tokenAddress",
          "type": "address"
        }
      ],
      "stateMutability": "view",
      "type": "function"
    },
    {
      "inputs": [
        {
          "internalType": "address",
          "name": "newOwner",
          "type": "address"
        }
      ],
      "name": "transferOwnership",
      "outputs": [],
      "stateMutability": "nonpayable",
      "type": "function"
    },
    {
      "inputs": [
        {
          "internalType": "uint256",
          "name": "amount",
          "type": "uint256"
        },
        {
          "internalType": "bytes32",
          "name": "ticker",
          "type": "bytes32"
        }
      ],
      "name": "withdraw",
      "outputs": [],
      "stateMutability": "nonpayable",
      "type": "function"
    },
    {
      "inputs": [
        {
          "internalType": "uint256",
          "name": "amount",
          "type": "uint256"
        }
      ],
      "name": "withdrawEth",
      "outputs": [],
      "stateMutability": "nonpayable",
      "type": "function"
    }
  ],
  "bytecode": "0x608060405234801561001057600080fd5b5061002d61002261003260201b60201c565b61003a60201b60201c565b6100fe565b600033905090565b60008060009054906101000a900473ffffffffffffffffffffffffffffffffffffffff169050816000806101000a81548173ffffffffffffffffffffffffffffffffffffffff021916908373ffffffffffffffffffffffffffffffffffffffff1602179055508173ffffffffffffffffffffffffffffffffffffffff168173ffffffffffffffffffffffffffffffffffffffff167f8be0079c531659141344cd1fd0a4f28419497f9722a3daafe3b4186f6b6457e060405160405180910390a35050565b6116558061010d6000396000f3fe60806040526004361061009c5760003560e01c80639776aacf116100645780639776aacf146101685780639ead722214610191578063a8d2021a146101ce578063c311d049146101f7578063c9630cb014610220578063f2fde38b1461023c5761009c565b80631f14df69146100a1578063439370b1146100de578063667cb4ba146100e8578063715018a6146101265780638da5cb5b1461013d575b600080fd5b3480156100ad57600080fd5b506100c860048036038101906100c39190611008565b610265565b6040516100d59190611458565b60405180910390f35b6100e661028a565b005b3480156100f457600080fd5b5061010f600480360381019061010a919061106d565b610383565b60405161011d92919061138f565b60405180910390f35b34801561013257600080fd5b5061013b6103c7565b005b34801561014957600080fd5b5061015261044f565b60405161015f91906112f9565b60405180910390f35b34801561017457600080fd5b5061018f600480360381019061018a9190611096565b610478565b005b34801561019d57600080fd5b506101b860048036038101906101b391906110d2565b6105b3565b6040516101c59190611374565b60405180910390f35b3480156101da57600080fd5b506101f560048036038101906101f091906110fb565b6105d7565b005b34801561020357600080fd5b5061021e600480360381019061021991906110d2565b6108ca565b005b61023a600480360381019061023591906110fb565b610b39565b005b34801561024857600080fd5b50610263600480360381019061025e9190610fdf565b610d9b565b005b6003602052816000526040600020602052806000526040600020600091509150505481565b61030d34600360003373ffffffffffffffffffffffffffffffffffffffff1673ffffffffffffffffffffffffffffffffffffffff16815260200190815260200160002060007f4554480000000000000000000000000000000000000000000000000000000000815260200190815260200160002054610e9390919063ffffffff16565b600360003373ffffffffffffffffffffffffffffffffffffffff1673ffffffffffffffffffffffffffffffffffffffff16815260200190815260200160002060007f4554480000000000000000000000000000000000000000000000000000000000815260200190815260200160002081905550565b60016020528060005260406000206000915090508060000154908060010160009054906101000a900473ffffffffffffffffffffffffffffffffffffffff16905082565b6103cf610ea9565b73ffffffffffffffffffffffffffffffffffffffff166103ed61044f565b73ffffffffffffffffffffffffffffffffffffffff1614610443576040517f08c379a000000000000000000000000000000000000000000000000000000000815260040161043a90611418565b60405180910390fd5b61044d6000610eb1565b565b60008060009054906101000a900473ffffffffffffffffffffffffffffffffffffffff16905090565b610480610ea9565b73ffffffffffffffffffffffffffffffffffffffff1661049e61044f565b73ffffffffffffffffffffffffffffffffffffffff16146104f4576040517f08c379a00000000000000000000000000000000000000000000000000000000081526004016104eb90611418565b60405180910390fd5b60405180604001604052808381526020018273ffffffffffffffffffffffffffffffffffffffff16815250600160008481526020019081526020016000206000820151816000015560208201518160010160006101000a81548173ffffffffffffffffffffffffffffffffffffffff021916908373ffffffffffffffffffffffffffffffffffffffff16021790555090505060028290806001815401808255809150506001900390600052602060002001600090919091909150555050565b600281815481106105c357600080fd5b906000526020600020016000915090505481565b80600073ffffffffffffffffffffffffffffffffffffffff166001600083815260200190815260200160002060010160009054906101000a900473ffffffffffffffffffffffffffffffffffffffff1673ffffffffffffffffffffffffffffffffffffffff16141561067e576040517f08c379a000000000000000000000000000000000000000000000000000000000815260040161067590611438565b60405180910390fd5b82600360003373ffffffffffffffffffffffffffffffffffffffff1673ffffffffffffffffffffffffffffffffffffffff1681526020019081526020016000206000848152602001908152602001600020541015610711576040517f08c379a0000000000000000000000000000000000000000000000000000000008152600401610708906113b8565b60405180910390fd5b7f7403cafb32164b082ee581e5bd17d85dd82f2e64cdd8bd729ea9435928f7433a8383604051610742929190611473565b60405180910390a16107ad83600360003373ffffffffffffffffffffffffffffffffffffffff1673ffffffffffffffffffffffffffffffffffffffff168152602001908152602001600020600085815260200190815260200160002054610f7590919063ffffffff16565b600360003373ffffffffffffffffffffffffffffffffffffffff1673ffffffffffffffffffffffffffffffffffffffff1681526020019081526020016000206000848152602001908152602001600020819055506001600083815260200190815260200160002060010160009054906101000a900473ffffffffffffffffffffffffffffffffffffffff1673ffffffffffffffffffffffffffffffffffffffff1663a9059cbb33856040518363ffffffff1660e01b815260040161087292919061134b565b602060405180830381600087803b15801561088c57600080fd5b505af11580156108a0573d6000803e3d6000fd5b505050506040513d601f19601f820116820180604052508101906108c49190611044565b50505050565b80600360003373ffffffffffffffffffffffffffffffffffffffff1673ffffffffffffffffffffffffffffffffffffffff16815260200190815260200160002060007f4554480000000000000000000000000000000000000000000000000000000000815260200190815260200160002054101561097d576040517f08c379a0000000000000000000000000000000000000000000000000000000008152600401610974906113f8565b60405180910390fd5b7f7403cafb32164b082ee581e5bd17d85dd82f2e64cdd8bd729ea9435928f7433a817f45544800000000000000000000000000000000000000000000000000000000006040516109ce929190611473565b60405180910390a1610a5981600360003373ffffffffffffffffffffffffffffffffffffffff1673ffffffffffffffffffffffffffffffffffffffff16815260200190815260200160002060007f4554480000000000000000000000000000000000000000000000000000000000815260200190815260200160002054610f7590919063ffffffff16565b600360003373ffffffffffffffffffffffffffffffffffffffff1673ffffffffffffffffffffffffffffffffffffffff16815260200190815260200160002060007f45544800000000000000000000000000000000000000000000000000000000008152602001908152602001600020819055503373ffffffffffffffffffffffffffffffffffffffff1681604051610af1906112e4565b60006040518083038185875af1925050503d8060008114610b2e576040519150601f19603f3d011682016040523d82523d6000602084013e610b33565b606091505b50505050565b80600073ffffffffffffffffffffffffffffffffffffffff166001600083815260200190815260200160002060010160009054906101000a900473ffffffffffffffffffffffffffffffffffffffff1673ffffffffffffffffffffffffffffffffffffffff161415610be0576040517f08c379a0000000000000000000000000000000000000000000000000000000008152600401610bd790611438565b60405180910390fd5b7f0131d4fe789c9eeb7c2dd7e32aa9393d395bef62f1f67e0ba2a76d33c6dcf5ee8383604051610c11929190611473565b60405180910390a16001600083815260200190815260200160002060010160009054906101000a900473ffffffffffffffffffffffffffffffffffffffff1673ffffffffffffffffffffffffffffffffffffffff166323b872dd3330866040518463ffffffff1660e01b8152600401610c8c93929190611314565b602060405180830381600087803b158015610ca657600080fd5b505af1158015610cba573d6000803e3d6000fd5b505050506040513d601f19601f82011682018060405250810190610cde9190611044565b50610d4283600360003373ffffffffffffffffffffffffffffffffffffffff1673ffffffffffffffffffffffffffffffffffffffff168152602001908152602001600020600085815260200190815260200160002054610e9390919063ffffffff16565b600360003373ffffffffffffffffffffffffffffffffffffffff1673ffffffffffffffffffffffffffffffffffffffff168152602001908152602001600020600084815260200190815260200160002081905550505050565b610da3610ea9565b73ffffffffffffffffffffffffffffffffffffffff16610dc161044f565b73ffffffffffffffffffffffffffffffffffffffff1614610e17576040517f08c379a0000000000000000000000000000000000000000000000000000000008152600401610e0e90611418565b60405180910390fd5b600073ffffffffffffffffffffffffffffffffffffffff168173ffffffffffffffffffffffffffffffffffffffff161415610e87576040517f08c379a0000000000000000000000000000000000000000000000000000000008152600401610e7e906113d8565b60405180910390fd5b610e9081610eb1565b50565b60008183610ea191906114b8565b905092915050565b600033905090565b60008060009054906101000a900473ffffffffffffffffffffffffffffffffffffffff169050816000806101000a81548173ffffffffffffffffffffffffffffffffffffffff021916908373ffffffffffffffffffffffffffffffffffffffff1602179055508173ffffffffffffffffffffffffffffffffffffffff168173ffffffffffffffffffffffffffffffffffffffff167f8be0079c531659141344cd1fd0a4f28419497f9722a3daafe3b4186f6b6457e060405160405180910390a35050565b60008183610f83919061150e565b905092915050565b600081359050610f9a816115c3565b92915050565b600081519050610faf816115da565b92915050565b600081359050610fc4816115f1565b92915050565b600081359050610fd981611608565b92915050565b600060208284031215610ff157600080fd5b6000610fff84828501610f8b565b91505092915050565b6000806040838503121561101b57600080fd5b600061102985828601610f8b565b925050602061103a85828601610fb5565b9150509250929050565b60006020828403121561105657600080fd5b600061106484828501610fa0565b91505092915050565b60006020828403121561107f57600080fd5b600061108d84828501610fb5565b91505092915050565b600080604083850312156110a957600080fd5b60006110b785828601610fb5565b92505060206110c885828601610f8b565b9150509250929050565b6000602082840312156110e457600080fd5b60006110f284828501610fca565b91505092915050565b6000806040838503121561110e57600080fd5b600061111c85828601610fca565b925050602061112d85828601610fb5565b9150509250929050565b61114081611542565b82525050565b61114f81611560565b82525050565b60006111626016836114a7565b91507f62616c616e6365206e6f742073756666696369656e74000000000000000000006000830152602082019050919050565b60006111a26026836114a7565b91507f4f776e61626c653a206e6577206f776e657220697320746865207a65726f206160008301527f64647265737300000000000000000000000000000000000000000000000000006020830152604082019050919050565b60006112086012836114a7565b91507f496e7375666669656e742062616c616e636500000000000000000000000000006000830152602082019050919050565b60006112486020836114a7565b91507f4f776e61626c653a2063616c6c6572206973206e6f7420746865206f776e65726000830152602082019050919050565b600061128860008361149c565b9150600082019050919050565b60006112a26014836114a7565b91507f746f6b656e20646f6573206e6f742065786973740000000000000000000000006000830152602082019050919050565b6112de8161158a565b82525050565b60006112ef8261127b565b9150819050919050565b600060208201905061130e6000830184611137565b92915050565b60006060820190506113296000830186611137565b6113366020830185611137565b61134360408301846112d5565b949350505050565b60006040820190506113606000830185611137565b61136d60208301846112d5565b9392505050565b60006020820190506113896000830184611146565b92915050565b60006040820190506113a46000830185611146565b6113b16020830184611137565b9392505050565b600060208201905081810360008301526113d181611155565b9050919050565b600060208201905081810360008301526113f181611195565b9050919050565b60006020820190508181036000830152611411816111fb565b9050919050565b600060208201905081810360008301526114318161123b565b9050919050565b6000602082019050818103600083015261145181611295565b9050919050565b600060208201905061146d60008301846112d5565b92915050565b600060408201905061148860008301856112d5565b6114956020830184611146565b9392505050565b600081905092915050565b600082825260208201905092915050565b60006114c38261158a565b91506114ce8361158a565b9250827fffffffffffffffffffffffffffffffffffffffffffffffffffffffffffffffff0382111561150357611502611594565b5b828201905092915050565b60006115198261158a565b91506115248361158a565b92508282101561153757611536611594565b5b828203905092915050565b600061154d8261156a565b9050919050565b60008115159050919050565b6000819050919050565b600073ffffffffffffffffffffffffffffffffffffffff82169050919050565b6000819050919050565b7f4e487b7100000000000000000000000000000000000000000000000000000000600052601160045260246000fd5b6115cc81611542565b81146115d757600080fd5b50565b6115e381611554565b81146115ee57600080fd5b50565b6115fa81611560565b811461160557600080fd5b50565b6116118161158a565b811461161c57600080fd5b5056fea2646970667358221220a4ca7bf4cf8510cffdd067955cf9acfde2c6ce2924ba9083dd00e259f3d3084864736f6c63430008000033",
  "linkReferences": {},
  "deployedLinkReferences": {}
}